{"abi":[{"inputs":[{"internalType":"uint256","name":"minimum","type":"uint256"},{"internalType":"address","name":"creator","type":"address"}],"stateMutability":"nonpayable","type":"constructor"},{"inputs":[{"internalType":"uint256","name":"index","type":"uint256"}],"name":"approveRequest","outputs":[],"stateMutability":"nonpayable","type":"function"},{"inputs":[{"internalType":"address","name":"","type":"address"}],"name":"approvers","outputs":[{"internalType":"bool","name":"","type":"bool"}],"stateMutability":"view","type":"function"},{"inputs":[],"name":"approversCount","outputs":[{"internalType":"uint256","name":"","type":"uint256"}],"stateMutability":"view","type":"function"},{"inputs":[],"name":"contribute","outputs":[],"stateMutability":"payable","type":"function"},{"inputs":[{"internalType":"string","name":"description","type":"string"},{"internalType":"uint256","name":"value","type":"uint256"},{"internalType":"address payable","name":"recipient","type":"address"}],"name":"createRequest","outputs":[],"stateMutability":"nonpayable","type":"function"},{"inputs":[{"internalType":"uint256","name":"index","type":"uint256"}],"name":"finalizeRequest","outputs":[],"stateMutability":"nonpayable","type":"function"},{"inputs":[],"name":"getRequestCount","outputs":[{"internalType":"uint256","name":"","type":"uint256"}],"stateMutability":"view","type":"function"},{"inputs":[],"name":"getSummary","outputs":[{"internalType":"uint256","name":"","type":"uint256"},{"internalType":"uint256","name":"","type":"uint256"},{"internalType":"uint256","name":"","type":"uint256"},{"internalType":"uint256","name":"","type":"uint256"},{"internalType":"address","name":"","type":"address"}],"stateMutability":"view","type":"function"},{"inputs":[],"name":"manager","outputs":[{"internalType":"address","name":"","type":"address"}],"stateMutability":"view","type":"function"},{"inputs":[],"name":"minimumContribution","outputs":[{"internalType":"uint256","name":"","type":"uint256"}],"stateMutability":"view","type":"function"},{"inputs":[{"internalType":"uint256","name":"","type":"uint256"}],"name":"requests","outputs":[{"internalType":"string","name":"description","type":"string"},{"internalType":"uint256","name":"value","type":"uint256"},{"internalType":"address payable","name":"recipient","type":"address"},{"internalType":"bool","name":"complete","type":"bool"},{"internalType":"uint256","name":"approvalCount","type":"uint256"}],"stateMutability":"view","type":"function"}],"devdoc":{"kind":"dev","methods":{},"version":1},"evm":{"assembly":"    /* \"Campaign.sol\":455:2564  contract Campaign {... */\n  mstore(0x40, 0x80)\n    /* \"Campaign.sol\":990:1106  constructor(uint minimum, address creator) {... */\n  callvalue\n  dup1\n  iszero\n  tag_1\n  jumpi\n  0x00\n  dup1\n  revert\ntag_1:\n  pop\n  mload(0x40)\n  sub(codesize, bytecodeSize)\n  dup1\n  bytecodeSize\n  dup4\n  codecopy\n  dup2\n  add\n  0x40\n  dup2\n  swap1\n  mstore\n  tag_2\n  swap2\n  tag_3\n  jump\t// in\ntag_2:\n    /* \"Campaign.sol\":1043:1050  manager */\n  0x02\n    /* \"Campaign.sol\":1043:1060  manager = creator */\n  dup1\n  sload\n  not(sub(shl(0xa0, 0x01), 0x01))\n  and\n  sub(shl(0xa0, 0x01), 0x01)\n  swap3\n  swap1\n  swap3\n  and\n  swap2\n  swap1\n  swap2\n  or\n  swap1\n  sstore\n    /* \"Campaign.sol\":1070:1089  minimumContribution */\n  0x03\n    /* \"Campaign.sol\":1070:1099  minimumContribution = minimum */\n  sstore\n    /* \"Campaign.sol\":455:2564  contract Campaign {... */\n  jump(tag_7)\n    /* \"#utility.yul\":14:365   */\ntag_3:\n    /* \"#utility.yul\":93:99   */\n  0x00\n    /* \"#utility.yul\":101:107   */\n  dup1\n    /* \"#utility.yul\":154:156   */\n  0x40\n    /* \"#utility.yul\":142:151   */\n  dup4\n    /* \"#utility.yul\":133:140   */\n  dup6\n    /* \"#utility.yul\":129:152   */\n  sub\n    /* \"#utility.yul\":125:157   */\n  slt\n    /* \"#utility.yul\":122:174   */\n  iszero\n  tag_9\n  jumpi\n    /* \"#utility.yul\":170:171   */\n  0x00\n    /* \"#utility.yul\":167:168   */\n  dup1\n    /* \"#utility.yul\":160:172   */\n  revert\n    /* \"#utility.yul\":122:174   */\ntag_9:\n    /* \"#utility.yul\":193:209   */\n  dup3\n  mload\n    /* \"#utility.yul\":252:254   */\n  0x20\n    /* \"#utility.yul\":237:255   */\n  dup5\n  add\n    /* \"#utility.yul\":231:256   */\n  mload\n    /* \"#utility.yul\":193:209   */\n  swap1\n  swap3\n  pop\n  sub(shl(0xa0, 0x01), 0x01)\n    /* \"#utility.yul\":285:316   */\n  dup2\n  and\n    /* \"#utility.yul\":275:317   */\n  dup2\n  eq\n    /* \"#utility.yul\":265:335   */\n  tag_10\n  jumpi\n    /* \"#utility.yul\":331:332   */\n  0x00\n    /* \"#utility.yul\":328:329   */\n  dup1\n    /* \"#utility.yul\":321:333   */\n  revert\n    /* \"#utility.yul\":265:335   */\ntag_10:\n    /* \"#utility.yul\":354:359   */\n  dup1\n    /* \"#utility.yul\":344:359   */\n  swap2\n  pop\n  pop\n    /* \"#utility.yul\":14:365   */\n  swap3\n  pop\n  swap3\n  swap1\n  pop\n  jump\t// out\ntag_7:\n    /* \"Campaign.sol\":455:2564  contract Campaign {... */\n  dataSize(sub_0)\n  dup1\n  dataOffset(sub_0)\n  0x00\n  codecopy\n  0x00\n  return\nstop\n\nsub_0: assembly {\n        /* \"Campaign.sol\":455:2564  contract Campaign {... */\n      mstore(0x40, 0x80)\n      jumpi(tag_1, lt(calldatasize, 0x04))\n      shr(0xe0, calldataload(0x00))\n      dup1\n      0x81d12c58\n      gt\n      tag_13\n      jumpi\n      dup1\n      0x81d12c58\n      eq\n      tag_7\n      jumpi\n      dup1\n      0x82fde093\n      eq\n      tag_8\n      jumpi\n      dup1\n      0x8a9cfd55\n      eq\n      tag_9\n      jumpi\n      dup1\n      0x937e09b1\n      eq\n      tag_10\n      jumpi\n      dup1\n      0xd7bb99ba\n      eq\n      tag_11\n      jumpi\n      dup1\n      0xd7d1bbdb\n      eq\n      tag_12\n      jumpi\n      0x00\n      dup1\n      revert\n    tag_13:\n      dup1\n      0x03441006\n      eq\n      tag_2\n      jumpi\n      dup1\n      0x0a144391\n      eq\n      tag_3\n      jumpi\n      dup1\n      0x3fad1834\n      eq\n      tag_4\n      jumpi\n      dup1\n      0x4051ddac\n      eq\n      tag_5\n      jumpi\n      dup1\n      0x481c6a75\n      eq\n      tag_6\n      jumpi\n    tag_1:\n      0x00\n      dup1\n      revert\n        /* \"Campaign.sol\":1889:2196  function finalizeRequest(uint index) public restricted {... */\n    tag_2:\n      callvalue\n      dup1\n      iszero\n      tag_14\n      jumpi\n      0x00\n      dup1\n      revert\n    tag_14:\n      pop\n      tag_15\n      tag_16\n      calldatasize\n      0x04\n      tag_17\n      jump\t// in\n    tag_16:\n      tag_18\n      jump\t// in\n    tag_15:\n      stop\n        /* \"Campaign.sol\":825:866  mapping(address => bool) public approvers */\n    tag_3:\n      callvalue\n      dup1\n      iszero\n      tag_19\n      jumpi\n      0x00\n      dup1\n      revert\n    tag_19:\n      pop\n      tag_20\n      tag_21\n      calldatasize\n      0x04\n      tag_22\n      jump\t// in\n    tag_21:\n      mstore(0x20, 0x04)\n      0x00\n      swap1\n      dup2\n      mstore\n      0x40\n      swap1\n      keccak256\n      sload\n      0xff\n      and\n      dup2\n      jump\n    tag_20:\n      mload(0x40)\n        /* \"#utility.yul\":848:862   */\n      swap1\n      iszero\n        /* \"#utility.yul\":841:863   */\n      iszero\n        /* \"#utility.yul\":823:864   */\n      dup2\n      mstore\n        /* \"#utility.yul\":811:813   */\n      0x20\n        /* \"#utility.yul\":796:814   */\n      add\n        /* \"Campaign.sol\":825:866  mapping(address => bool) public approvers */\n    tag_24:\n      mload(0x40)\n      dup1\n      swap2\n      sub\n      swap1\n      return\n        /* \"Campaign.sol\":2474:2562  function getRequestCount() public view returns (uint){... */\n    tag_4:\n      callvalue\n      dup1\n      iszero\n      tag_26\n      jumpi\n      0x00\n      dup1\n      revert\n    tag_26:\n      pop\n        /* \"Campaign.sol\":2522:2526  uint */\n      0x00\n        /* \"Campaign.sol\":2544:2555  numRequests */\n      sload\n        /* \"Campaign.sol\":2474:2562  function getRequestCount() public view returns (uint){... */\n    tag_27:\n      mload(0x40)\n        /* \"#utility.yul\":1021:1046   */\n      swap1\n      dup2\n      mstore\n        /* \"#utility.yul\":1009:1011   */\n      0x20\n        /* \"#utility.yul\":994:1012   */\n      add\n        /* \"Campaign.sol\":2474:2562  function getRequestCount() public view returns (uint){... */\n      tag_24\n        /* \"#utility.yul\":875:1052   */\n      jump\n        /* \"Campaign.sol\":2202:2468  function getSummary() public view returns (... */\n    tag_5:\n      callvalue\n      dup1\n      iszero\n      tag_31\n      jumpi\n      0x00\n      dup1\n      revert\n    tag_31:\n      pop\n        /* \"Campaign.sol\":2323:2342  minimumContribution */\n      sload(0x03)\n        /* \"Campaign.sol\":2254:2258  uint */\n      0x00\n        /* \"Campaign.sol\":2391:2402  numRequests */\n      sload\n        /* \"Campaign.sol\":2416:2430  approversCount */\n      sload(0x05)\n        /* \"Campaign.sol\":2444:2451  manager */\n      sload(0x02)\n        /* \"Campaign.sol\":2202:2468  function getSummary() public view returns (... */\n      0x40\n      dup1\n      mload\n        /* \"#utility.yul\":1425:1450   */\n      swap5\n      dup6\n      mstore\n        /* \"Campaign.sol\":2356:2377  address(this).balance */\n      selfbalance\n        /* \"#utility.yul\":1481:1483   */\n      0x20\n        /* \"#utility.yul\":1466:1484   */\n      dup7\n      add\n        /* \"#utility.yul\":1459:1493   */\n      mstore\n        /* \"#utility.yul\":1509:1527   */\n      dup5\n      add\n        /* \"#utility.yul\":1502:1536   */\n      swap3\n      swap1\n      swap3\n      mstore\n        /* \"#utility.yul\":1567:1569   */\n      0x60\n        /* \"#utility.yul\":1552:1570   */\n      dup4\n      add\n        /* \"#utility.yul\":1545:1579   */\n      mstore\n      sub(shl(0xa0, 0x01), 0x01)\n        /* \"Campaign.sol\":2444:2451  manager */\n      and\n        /* \"#utility.yul\":1610:1613   */\n      0x80\n        /* \"#utility.yul\":1595:1614   */\n      dup3\n      add\n        /* \"#utility.yul\":1588:1649   */\n      mstore\n        /* \"#utility.yul\":1412:1415   */\n      0xa0\n        /* \"#utility.yul\":1397:1416   */\n      add\n        /* \"Campaign.sol\":2202:2468  function getSummary() public view returns (... */\n      tag_24\n        /* \"#utility.yul\":1166:1655   */\n      jump\n        /* \"Campaign.sol\":755:777  address public manager */\n    tag_6:\n      callvalue\n      dup1\n      iszero\n      tag_36\n      jumpi\n      0x00\n      dup1\n      revert\n    tag_36:\n      pop\n      sload(0x02)\n      tag_37\n      swap1\n      sub(shl(0xa0, 0x01), 0x01)\n      and\n      dup2\n      jump\n    tag_37:\n      mload(0x40)\n      sub(shl(0xa0, 0x01), 0x01)\n        /* \"#utility.yul\":1824:1856   */\n      swap1\n      swap2\n      and\n        /* \"#utility.yul\":1806:1857   */\n      dup2\n      mstore\n        /* \"#utility.yul\":1794:1796   */\n      0x20\n        /* \"#utility.yul\":1779:1797   */\n      add\n        /* \"Campaign.sol\":755:777  address public manager */\n      tag_24\n        /* \"#utility.yul\":1660:1863   */\n      jump\n        /* \"Campaign.sol\":708:748  mapping(uint => Request) public requests */\n    tag_7:\n      callvalue\n      dup1\n      iszero\n      tag_41\n      jumpi\n      0x00\n      dup1\n      revert\n    tag_41:\n      pop\n      tag_42\n      tag_43\n      calldatasize\n      0x04\n      tag_17\n      jump\t// in\n    tag_43:\n      tag_44\n      jump\t// in\n    tag_42:\n      mload(0x40)\n      tag_24\n      swap6\n      swap5\n      swap4\n      swap3\n      swap2\n      swap1\n      tag_46\n      jump\t// in\n        /* \"Campaign.sol\":872:898  uint public approversCount */\n    tag_8:\n      callvalue\n      dup1\n      iszero\n      tag_47\n      jumpi\n      0x00\n      dup1\n      revert\n    tag_47:\n      pop\n      tag_27\n      sload(0x05)\n      dup2\n      jump\n        /* \"Campaign.sol\":1277:1605  function createRequest(string memory description, uint value,... */\n    tag_9:\n      callvalue\n      dup1\n      iszero\n      tag_51\n      jumpi\n      0x00\n      dup1\n      revert\n    tag_51:\n      pop\n      tag_15\n      tag_53\n      calldatasize\n      0x04\n      tag_54\n      jump\t// in\n    tag_53:\n      tag_55\n      jump\t// in\n        /* \"Campaign.sol\":788:819  uint public minimumContribution */\n    tag_10:\n      callvalue\n      dup1\n      iszero\n      tag_56\n      jumpi\n      0x00\n      dup1\n      revert\n    tag_56:\n      pop\n      tag_27\n      sload(0x03)\n      dup2\n      jump\n        /* \"Campaign.sol\":1112:1271  function contribute() public payable {... */\n    tag_11:\n      tag_15\n      tag_61\n      jump\t// in\n        /* \"Campaign.sol\":1611:1883  function approveRequest(uint index) public {... */\n    tag_12:\n      callvalue\n      dup1\n      iszero\n      tag_62\n      jumpi\n      0x00\n      dup1\n      revert\n    tag_62:\n      pop\n      tag_15\n      tag_64\n      calldatasize\n      0x04\n      tag_17\n      jump\t// in\n    tag_64:\n      tag_65\n      jump\t// in\n        /* \"Campaign.sol\":1889:2196  function finalizeRequest(uint index) public restricted {... */\n    tag_18:\n        /* \"Campaign.sol\":958:965  manager */\n      and(sub(shl(0xa0, 0x01), 0x01), sload(0x02))\n        /* \"Campaign.sol\":944:954  msg.sender */\n      caller\n        /* \"Campaign.sol\":944:965  msg.sender == manager */\n      eq\n        /* \"Campaign.sol\":936:966  require(msg.sender == manager) */\n      tag_67\n      jumpi\n      0x00\n      dup1\n      revert\n    tag_67:\n        /* \"Campaign.sol\":1963:1986  Request storage request */\n      0x00\n        /* \"Campaign.sol\":1989:2004  requests[index] */\n      dup2\n      dup2\n      mstore\n        /* \"Campaign.sol\":1989:1997  requests */\n      0x01\n        /* \"Campaign.sol\":1989:2004  requests[index] */\n      0x20\n      mstore\n      0x40\n      swap1\n      keccak256\n        /* \"Campaign.sol\":2024:2040  request.complete */\n      0x02\n      dup2\n      add\n      sload\n      shl(0xa0, 0x01)\n      swap1\n      div\n      0xff\n      and\n        /* \"Campaign.sol\":2023:2040  !request.complete */\n      iszero\n        /* \"Campaign.sol\":2015:2041  require(!request.complete) */\n      tag_69\n      jumpi\n      0x00\n      dup1\n      revert\n    tag_69:\n        /* \"Campaign.sol\":2101:2102  2 */\n      0x02\n        /* \"Campaign.sol\":2084:2098  approversCount */\n      sload(0x05)\n        /* \"Campaign.sol\":2084:2102  approversCount / 2 */\n      tag_70\n      swap2\n      swap1\n      tag_71\n      jump\t// in\n    tag_70:\n        /* \"Campaign.sol\":2059:2066  request */\n      dup2\n        /* \"Campaign.sol\":2059:2080  request.approvalCount */\n      0x03\n      add\n      sload\n        /* \"Campaign.sol\":2059:2103  request.approvalCount > (approversCount / 2) */\n      gt\n        /* \"Campaign.sol\":2051:2104  require(request.approvalCount > (approversCount / 2)) */\n      tag_72\n      jumpi\n      0x00\n      dup1\n      revert\n    tag_72:\n        /* \"Campaign.sol\":2115:2132  request.recipient */\n      0x02\n      dup2\n      add\n      sload\n      0x01\n        /* \"Campaign.sol\":2142:2155  request.value */\n      dup3\n      add\n      sload\n        /* \"Campaign.sol\":2115:2156  request.recipient.transfer(request.value) */\n      mload(0x40)\n      sub(shl(0xa0, 0x01), 0x01)\n        /* \"Campaign.sol\":2115:2132  request.recipient */\n      swap1\n      swap3\n      and\n      swap2\n        /* \"Campaign.sol\":2115:2156  request.recipient.transfer(request.value) */\n      dup2\n      iszero\n      0x08fc\n      mul\n      swap2\n        /* \"Campaign.sol\":2142:2155  request.value */\n      swap1\n        /* \"Campaign.sol\":2115:2132  request.recipient */\n      0x00\n        /* \"Campaign.sol\":2115:2156  request.recipient.transfer(request.value) */\n      dup2\n        /* \"Campaign.sol\":2115:2132  request.recipient */\n      dup2\n        /* \"Campaign.sol\":2115:2156  request.recipient.transfer(request.value) */\n      dup2\n        /* \"Campaign.sol\":2142:2155  request.value */\n      dup6\n        /* \"Campaign.sol\":2115:2132  request.recipient */\n      dup9\n        /* \"Campaign.sol\":2115:2156  request.recipient.transfer(request.value) */\n      dup9\n      call\n      swap4\n      pop\n      pop\n      pop\n      pop\n      iszero\n      dup1\n      iszero\n      tag_74\n      jumpi\n      returndatasize\n      0x00\n      dup1\n      returndatacopy\n      revert(0x00, returndatasize)\n    tag_74:\n      pop\n        /* \"Campaign.sol\":2166:2182  request.complete */\n      0x02\n      add\n        /* \"Campaign.sol\":2166:2189  request.complete = true */\n      dup1\n      sload\n      not(shl(0xa0, 0xff))\n      and\n      shl(0xa0, 0x01)\n      or\n      swap1\n      sstore\n      pop\n        /* \"Campaign.sol\":1889:2196  function finalizeRequest(uint index) public restricted {... */\n      jump\t// out\n        /* \"Campaign.sol\":708:748  mapping(uint => Request) public requests */\n    tag_44:\n      mstore(0x20, 0x01)\n      0x00\n      swap1\n      dup2\n      mstore\n      0x40\n      swap1\n      keccak256\n      dup1\n      sload\n      dup2\n      swap1\n      tag_77\n      swap1\n      tag_78\n      jump\t// in\n    tag_77:\n      dup1\n      0x1f\n      add\n      0x20\n      dup1\n      swap2\n      div\n      mul\n      0x20\n      add\n      mload(0x40)\n      swap1\n      dup2\n      add\n      0x40\n      mstore\n      dup1\n      swap3\n      swap2\n      swap1\n      dup2\n      dup2\n      mstore\n      0x20\n      add\n      dup3\n      dup1\n      sload\n      tag_79\n      swap1\n      tag_78\n      jump\t// in\n    tag_79:\n      dup1\n      iszero\n      tag_80\n      jumpi\n      dup1\n      0x1f\n      lt\n      tag_81\n      jumpi\n      0x0100\n      dup1\n      dup4\n      sload\n      div\n      mul\n      dup4\n      mstore\n      swap2\n      0x20\n      add\n      swap2\n      jump(tag_80)\n    tag_81:\n      dup3\n      add\n      swap2\n      swap1\n      0x00\n      mstore\n      keccak256(0x00, 0x20)\n      swap1\n    tag_82:\n      dup2\n      sload\n      dup2\n      mstore\n      swap1\n      0x01\n      add\n      swap1\n      0x20\n      add\n      dup1\n      dup4\n      gt\n      tag_82\n      jumpi\n      dup3\n      swap1\n      sub\n      0x1f\n      and\n      dup3\n      add\n      swap2\n    tag_80:\n      pop\n      pop\n      pop\n      pop\n      0x01\n      dup4\n      add\n      sload\n      0x02\n      dup5\n      add\n      sload\n      0x03\n      swap1\n      swap5\n      add\n      sload\n      swap3\n      swap4\n      swap1\n      swap3\n      sub(shl(0xa0, 0x01), 0x01)\n      dup3\n      and\n      swap3\n      pop\n      shl(0xa0, 0x01)\n      swap1\n      swap2\n      div\n      0xff\n      and\n      swap1\n      dup6\n      jump\t// out\n        /* \"Campaign.sol\":1277:1605  function createRequest(string memory description, uint value,... */\n    tag_55:\n        /* \"Campaign.sol\":958:965  manager */\n      and(sub(shl(0xa0, 0x01), 0x01), sload(0x02))\n        /* \"Campaign.sol\":944:954  msg.sender */\n      caller\n        /* \"Campaign.sol\":944:965  msg.sender == manager */\n      eq\n        /* \"Campaign.sol\":936:966  require(msg.sender == manager) */\n      tag_84\n      jumpi\n      0x00\n      dup1\n      revert\n    tag_84:\n        /* \"Campaign.sol\":1403:1420  Request storage r */\n      0x00\n        /* \"Campaign.sol\":1432:1445  numRequests++ */\n      dup1\n      sload\n        /* \"Campaign.sol\":1423:1431  requests */\n      0x01\n      swap1\n        /* \"Campaign.sol\":1403:1420  Request storage r */\n      dup3\n      swap1\n      dup2\n      dup1\n        /* \"Campaign.sol\":1432:1445  numRequests++ */\n      tag_86\n      dup4\n      tag_87\n      jump\t// in\n    tag_86:\n      swap1\n      swap2\n      sstore\n      pop\n        /* \"Campaign.sol\":1423:1446  requests[numRequests++] */\n      dup2\n      mstore\n      0x20\n      dup1\n      dup3\n      add\n      swap3\n      swap1\n      swap3\n      mstore\n      0x40\n      add\n      0x00\n      keccak256\n        /* \"Campaign.sol\":1456:1483  r.description = description */\n      dup6\n      mload\n        /* \"Campaign.sol\":1423:1446  requests[numRequests++] */\n      swap1\n      swap3\n      pop\n        /* \"Campaign.sol\":1456:1483  r.description = description */\n      tag_88\n      swap2\n        /* \"Campaign.sol\":1423:1446  requests[numRequests++] */\n      dup4\n      swap2\n        /* \"Campaign.sol\":1456:1483  r.description = description */\n      swap1\n      dup8\n      add\n      swap1\n      tag_89\n      jump\t// in\n    tag_88:\n      pop\n        /* \"Campaign.sol\":1493:1500  r.value */\n      0x01\n      dup2\n      add\n        /* \"Campaign.sol\":1493:1508  r.value = value */\n      swap3\n      swap1\n      swap3\n      sstore\n        /* \"Campaign.sol\":1518:1529  r.recipient */\n      0x02\n      dup3\n      add\n        /* \"Campaign.sol\":1518:1541  r.recipient = recipient */\n      dup1\n      sload\n      not(sub(shl(0xa8, 0x01), 0x01))\n        /* \"Campaign.sol\":1551:1569  r.complete = false */\n      and\n      sub(shl(0xa0, 0x01), 0x01)\n        /* \"Campaign.sol\":1518:1541  r.recipient = recipient */\n      swap1\n      swap3\n      and\n        /* \"Campaign.sol\":1551:1569  r.complete = false */\n      swap2\n      swap1\n      swap2\n      or\n      swap1\n      sstore\n        /* \"Campaign.sol\":1518:1529  r.recipient */\n      0x00\n        /* \"Campaign.sol\":1579:1594  r.approvalCount */\n      0x03\n      swap1\n      swap2\n      add\n        /* \"Campaign.sol\":1579:1598  r.approvalCount = 0 */\n      sstore\n      pop\n        /* \"Campaign.sol\":1277:1605  function createRequest(string memory description, uint value,... */\n      jump\t// out\n        /* \"Campaign.sol\":1112:1271  function contribute() public payable {... */\n    tag_61:\n        /* \"Campaign.sol\":1179:1198  minimumContribution */\n      sload(0x03)\n        /* \"Campaign.sol\":1167:1176  msg.value */\n      callvalue\n        /* \"Campaign.sol\":1167:1198  msg.value > minimumContribution */\n      gt\n        /* \"Campaign.sol\":1159:1199  require(msg.value > minimumContribution) */\n      tag_91\n      jumpi\n      0x00\n      dup1\n      revert\n    tag_91:\n        /* \"Campaign.sol\":1220:1230  msg.sender */\n      caller\n        /* \"Campaign.sol\":1210:1231  approvers[msg.sender] */\n      0x00\n      swap1\n      dup2\n      mstore\n        /* \"Campaign.sol\":1210:1219  approvers */\n      0x04\n        /* \"Campaign.sol\":1210:1231  approvers[msg.sender] */\n      0x20\n      mstore\n      0x40\n      dup2\n      keccak256\n        /* \"Campaign.sol\":1210:1238  approvers[msg.sender] = true */\n      dup1\n      sload\n      not(0xff)\n      and\n        /* \"Campaign.sol\":1234:1238  true */\n      0x01\n        /* \"Campaign.sol\":1210:1238  approvers[msg.sender] = true */\n      or\n      swap1\n      sstore\n        /* \"Campaign.sol\":1248:1262  approversCount */\n      0x05\n        /* \"Campaign.sol\":1248:1264  approversCount++ */\n      dup1\n      sload\n      swap2\n      tag_92\n      dup4\n      tag_87\n      jump\t// in\n    tag_92:\n      swap2\n      swap1\n      pop\n      sstore\n      pop\n        /* \"Campaign.sol\":1112:1271  function contribute() public payable {... */\n      jump\t// out\n        /* \"Campaign.sol\":1611:1883  function approveRequest(uint index) public {... */\n    tag_65:\n        /* \"Campaign.sol\":1665:1688  Request storage request */\n      0x00\n        /* \"Campaign.sol\":1691:1706  requests[index] */\n      dup2\n      dup2\n      mstore\n        /* \"Campaign.sol\":1691:1699  requests */\n      0x01\n        /* \"Campaign.sol\":1691:1706  requests[index] */\n      0x20\n      swap1\n      dup2\n      mstore\n      0x40\n      dup1\n      dup4\n      keccak256\n        /* \"Campaign.sol\":1735:1745  msg.sender */\n      caller\n        /* \"Campaign.sol\":1725:1746  approvers[msg.sender] */\n      dup5\n      mstore\n        /* \"Campaign.sol\":1725:1734  approvers */\n      0x04\n        /* \"Campaign.sol\":1725:1746  approvers[msg.sender] */\n      swap1\n      swap3\n      mstore\n      swap1\n      swap2\n      keccak256\n      sload\n      0xff\n      and\n        /* \"Campaign.sol\":1717:1747  require(approvers[msg.sender]) */\n      tag_94\n      jumpi\n      0x00\n      dup1\n      revert\n    tag_94:\n        /* \"Campaign.sol\":1784:1794  msg.sender */\n      caller\n        /* \"Campaign.sol\":1766:1795  request.approvals[msg.sender] */\n      0x00\n      swap1\n      dup2\n      mstore\n        /* \"Campaign.sol\":1766:1783  request.approvals */\n      0x04\n      dup3\n      add\n        /* \"Campaign.sol\":1766:1795  request.approvals[msg.sender] */\n      0x20\n      mstore\n      0x40\n      swap1\n      keccak256\n      sload\n      0xff\n      and\n        /* \"Campaign.sol\":1765:1795  !request.approvals[msg.sender] */\n      iszero\n        /* \"Campaign.sol\":1757:1796  require(!request.approvals[msg.sender]) */\n      tag_95\n      jumpi\n      0x00\n      dup1\n      revert\n    tag_95:\n        /* \"Campaign.sol\":1825:1835  msg.sender */\n      caller\n        /* \"Campaign.sol\":1807:1836  request.approvals[msg.sender] */\n      0x00\n      swap1\n      dup2\n      mstore\n        /* \"Campaign.sol\":1807:1824  request.approvals */\n      0x04\n      dup3\n      add\n        /* \"Campaign.sol\":1807:1836  request.approvals[msg.sender] */\n      0x20\n      mstore\n      0x40\n      dup2\n      keccak256\n        /* \"Campaign.sol\":1807:1843  request.approvals[msg.sender] = true */\n      dup1\n      sload\n      not(0xff)\n      and\n        /* \"Campaign.sol\":1839:1843  true */\n      0x01\n        /* \"Campaign.sol\":1807:1843  request.approvals[msg.sender] = true */\n      or\n      swap1\n      sstore\n        /* \"Campaign.sol\":1853:1874  request.approvalCount */\n      0x03\n      dup3\n      add\n        /* \"Campaign.sol\":1853:1876  request.approvalCount++ */\n      dup1\n      sload\n      swap2\n      tag_96\n      dup4\n      tag_87\n      jump\t// in\n    tag_96:\n      swap2\n      swap1\n      pop\n      sstore\n      pop\n        /* \"Campaign.sol\":1654:1883  {... */\n      pop\n        /* \"Campaign.sol\":1611:1883  function approveRequest(uint index) public {... */\n      pop\n      jump\t// out\n    tag_89:\n      dup3\n      dup1\n      sload\n      tag_97\n      swap1\n      tag_78\n      jump\t// in\n    tag_97:\n      swap1\n      0x00\n      mstore\n      keccak256(0x00, 0x20)\n      swap1\n      0x1f\n      add\n      0x20\n      swap1\n      div\n      dup2\n      add\n      swap3\n      dup3\n      tag_99\n      jumpi\n      0x00\n      dup6\n      sstore\n      jump(tag_102)\n    tag_99:\n      dup3\n      0x1f\n      lt\n      tag_100\n      jumpi\n      dup1\n      mload\n      not(0xff)\n      and\n      dup4\n      dup1\n      add\n      or\n      dup6\n      sstore\n      jump(tag_102)\n    tag_100:\n      dup3\n      dup1\n      add\n      0x01\n      add\n      dup6\n      sstore\n      dup3\n      iszero\n      tag_102\n      jumpi\n      swap2\n      dup3\n      add\n    tag_101:\n      dup3\n      dup2\n      gt\n      iszero\n      tag_102\n      jumpi\n      dup3\n      mload\n      dup3\n      sstore\n      swap2\n      0x20\n      add\n      swap2\n      swap1\n      0x01\n      add\n      swap1\n      jump(tag_101)\n    tag_102:\n      pop\n      tag_103\n      swap3\n      swap2\n      pop\n      tag_104\n      jump\t// in\n    tag_103:\n      pop\n      swap1\n      jump\t// out\n    tag_104:\n    tag_105:\n      dup1\n      dup3\n      gt\n      iszero\n      tag_103\n      jumpi\n      0x00\n      dup2\n      sstore\n      0x01\n      add\n      jump(tag_105)\n        /* \"#utility.yul\":14:194   */\n    tag_17:\n        /* \"#utility.yul\":73:79   */\n      0x00\n        /* \"#utility.yul\":126:128   */\n      0x20\n        /* \"#utility.yul\":114:123   */\n      dup3\n        /* \"#utility.yul\":105:112   */\n      dup5\n        /* \"#utility.yul\":101:124   */\n      sub\n        /* \"#utility.yul\":97:129   */\n      slt\n        /* \"#utility.yul\":94:146   */\n      iszero\n      tag_114\n      jumpi\n        /* \"#utility.yul\":142:143   */\n      0x00\n        /* \"#utility.yul\":139:140   */\n      dup1\n        /* \"#utility.yul\":132:144   */\n      revert\n        /* \"#utility.yul\":94:146   */\n    tag_114:\n      pop\n        /* \"#utility.yul\":165:188   */\n      calldataload\n      swap2\n        /* \"#utility.yul\":14:194   */\n      swap1\n      pop\n      jump\t// out\n        /* \"#utility.yul\":199:330   */\n    tag_107:\n      sub(shl(0xa0, 0x01), 0x01)\n        /* \"#utility.yul\":274:305   */\n      dup2\n      and\n        /* \"#utility.yul\":264:306   */\n      dup2\n      eq\n        /* \"#utility.yul\":254:324   */\n      tag_116\n      jumpi\n        /* \"#utility.yul\":320:321   */\n      0x00\n        /* \"#utility.yul\":317:318   */\n      dup1\n        /* \"#utility.yul\":310:322   */\n      revert\n        /* \"#utility.yul\":254:324   */\n    tag_116:\n        /* \"#utility.yul\":199:330   */\n      pop\n      jump\t// out\n        /* \"#utility.yul\":335:582   */\n    tag_22:\n        /* \"#utility.yul\":394:400   */\n      0x00\n        /* \"#utility.yul\":447:449   */\n      0x20\n        /* \"#utility.yul\":435:444   */\n      dup3\n        /* \"#utility.yul\":426:433   */\n      dup5\n        /* \"#utility.yul\":422:445   */\n      sub\n        /* \"#utility.yul\":418:450   */\n      slt\n        /* \"#utility.yul\":415:467   */\n      iszero\n      tag_118\n      jumpi\n        /* \"#utility.yul\":463:464   */\n      0x00\n        /* \"#utility.yul\":460:461   */\n      dup1\n        /* \"#utility.yul\":453:465   */\n      revert\n        /* \"#utility.yul\":415:467   */\n    tag_118:\n        /* \"#utility.yul\":502:511   */\n      dup2\n        /* \"#utility.yul\":489:512   */\n      calldataload\n        /* \"#utility.yul\":521:552   */\n      tag_119\n        /* \"#utility.yul\":546:551   */\n      dup2\n        /* \"#utility.yul\":521:552   */\n      tag_107\n      jump\t// in\n    tag_119:\n        /* \"#utility.yul\":571:576   */\n      swap4\n        /* \"#utility.yul\":335:582   */\n      swap3\n      pop\n      pop\n      pop\n      jump\t// out\n        /* \"#utility.yul\":1868:2771   */\n    tag_46:\n        /* \"#utility.yul\":2139:2142   */\n      0xa0\n        /* \"#utility.yul\":2128:2137   */\n      dup2\n        /* \"#utility.yul\":2121:2143   */\n      mstore\n        /* \"#utility.yul\":2102:2106   */\n      0x00\n        /* \"#utility.yul\":2172:2178   */\n      dup7\n        /* \"#utility.yul\":2166:2179   */\n      mload\n        /* \"#utility.yul\":2216:2222   */\n      dup1\n        /* \"#utility.yul\":2210:2213   */\n      0xa0\n        /* \"#utility.yul\":2199:2208   */\n      dup5\n        /* \"#utility.yul\":2195:2214   */\n      add\n        /* \"#utility.yul\":2188:2223   */\n      mstore\n        /* \"#utility.yul\":2241:2242   */\n      0x00\n        /* \"#utility.yul\":2251:2396   */\n    tag_127:\n        /* \"#utility.yul\":2265:2271   */\n      dup2\n        /* \"#utility.yul\":2262:2263   */\n      dup2\n        /* \"#utility.yul\":2259:2272   */\n      lt\n        /* \"#utility.yul\":2251:2396   */\n      iszero\n      tag_129\n      jumpi\n        /* \"#utility.yul\":2379:2383   */\n      0x20\n        /* \"#utility.yul\":2363:2377   */\n      dup2\n      dup11\n      add\n        /* \"#utility.yul\":2359:2384   */\n      dup2\n      add\n        /* \"#utility.yul\":2353:2385   */\n      mload\n        /* \"#utility.yul\":2347:2350   */\n      0xc0\n        /* \"#utility.yul\":2328:2345   */\n      dup7\n      dup5\n      add\n        /* \"#utility.yul\":2324:2351   */\n      add\n        /* \"#utility.yul\":2317:2386   */\n      mstore\n        /* \"#utility.yul\":2280:2292   */\n      add\n        /* \"#utility.yul\":2251:2396   */\n      jump(tag_127)\n    tag_129:\n        /* \"#utility.yul\":2414:2420   */\n      dup2\n        /* \"#utility.yul\":2411:2412   */\n      dup2\n        /* \"#utility.yul\":2408:2421   */\n      gt\n        /* \"#utility.yul\":2405:2497   */\n      iszero\n      tag_130\n      jumpi\n        /* \"#utility.yul\":2485:2486   */\n      0x00\n        /* \"#utility.yul\":2479:2482   */\n      0xc0\n        /* \"#utility.yul\":2470:2476   */\n      dup4\n        /* \"#utility.yul\":2459:2468   */\n      dup7\n        /* \"#utility.yul\":2455:2477   */\n      add\n        /* \"#utility.yul\":2451:2483   */\n      add\n        /* \"#utility.yul\":2444:2487   */\n      mstore\n        /* \"#utility.yul\":2405:2497   */\n    tag_130:\n      pop\n        /* \"#utility.yul\":2600:2604   */\n      0x20\n        /* \"#utility.yul\":2585:2605   */\n      dup4\n      add\n        /* \"#utility.yul\":2578:2614   */\n      dup8\n      swap1\n      mstore\n        /* \"#utility.yul\":2558:2560   */\n      0x1f\n        /* \"#utility.yul\":2537:2552   */\n      add\n      not(0x1f)\n        /* \"#utility.yul\":2533:2562   */\n      and\n        /* \"#utility.yul\":2518:2563   */\n      dup3\n      add\n        /* \"#utility.yul\":2565:2568   */\n      0xc0\n        /* \"#utility.yul\":2514:2569   */\n      add\n      swap1\n      pop\n        /* \"#utility.yul\":2623:2669   */\n      tag_131\n        /* \"#utility.yul\":2665:2667   */\n      0x40\n        /* \"#utility.yul\":2650:2668   */\n      dup4\n      add\n        /* \"#utility.yul\":2642:2648   */\n      dup7\n      sub(shl(0xa0, 0x01), 0x01)\n        /* \"#utility.yul\":1123:1154   */\n      and\n        /* \"#utility.yul\":1111:1155   */\n      swap1\n      mstore\n        /* \"#utility.yul\":1057:1161   */\n      jump\n        /* \"#utility.yul\":2623:2669   */\n    tag_131:\n        /* \"#utility.yul\":657:670   */\n      swap3\n      iszero\n        /* \"#utility.yul\":650:671   */\n      iszero\n        /* \"#utility.yul\":2717:2719   */\n      0x60\n        /* \"#utility.yul\":2702:2720   */\n      dup3\n      add\n        /* \"#utility.yul\":638:672   */\n      mstore\n        /* \"#utility.yul\":2752:2755   */\n      0x80\n        /* \"#utility.yul\":2737:2756   */\n      add\n        /* \"#utility.yul\":2730:2765   */\n      mstore\n        /* \"#utility.yul\":1868:2771   */\n      swap4\n      swap3\n      pop\n      pop\n      pop\n      jump\t// out\n        /* \"#utility.yul\":2776:2903   */\n    tag_110:\n        /* \"#utility.yul\":2837:2847   */\n      0x4e487b71\n        /* \"#utility.yul\":2832:2835   */\n      0xe0\n        /* \"#utility.yul\":2828:2848   */\n      shl\n        /* \"#utility.yul\":2825:2826   */\n      0x00\n        /* \"#utility.yul\":2818:2849   */\n      mstore\n        /* \"#utility.yul\":2868:2872   */\n      0x41\n        /* \"#utility.yul\":2865:2866   */\n      0x04\n        /* \"#utility.yul\":2858:2873   */\n      mstore\n        /* \"#utility.yul\":2892:2896   */\n      0x24\n        /* \"#utility.yul\":2889:2890   */\n      0x00\n        /* \"#utility.yul\":2882:2897   */\n      revert\n        /* \"#utility.yul\":2908:3050   */\n    tag_111:\n        /* \"#utility.yul\":2984:3004   */\n      dup1\n      calldataload\n        /* \"#utility.yul\":3013:3044   */\n      tag_135\n        /* \"#utility.yul\":2984:3004   */\n      dup2\n        /* \"#utility.yul\":3013:3044   */\n      tag_107\n      jump\t// in\n    tag_135:\n        /* \"#utility.yul\":2908:3050   */\n      swap2\n      swap1\n      pop\n      jump\t// out\n        /* \"#utility.yul\":3055:4145   */\n    tag_54:\n        /* \"#utility.yul\":3150:3156   */\n      0x00\n        /* \"#utility.yul\":3158:3164   */\n      dup1\n        /* \"#utility.yul\":3166:3172   */\n      0x00\n        /* \"#utility.yul\":3219:3221   */\n      0x60\n        /* \"#utility.yul\":3207:3216   */\n      dup5\n        /* \"#utility.yul\":3198:3205   */\n      dup7\n        /* \"#utility.yul\":3194:3217   */\n      sub\n        /* \"#utility.yul\":3190:3222   */\n      slt\n        /* \"#utility.yul\":3187:3239   */\n      iszero\n      tag_137\n      jumpi\n        /* \"#utility.yul\":3235:3236   */\n      0x00\n        /* \"#utility.yul\":3232:3233   */\n      dup1\n        /* \"#utility.yul\":3225:3237   */\n      revert\n        /* \"#utility.yul\":3187:3239   */\n    tag_137:\n        /* \"#utility.yul\":3275:3284   */\n      dup4\n        /* \"#utility.yul\":3262:3285   */\n      calldataload\n        /* \"#utility.yul\":3304:3322   */\n      0xffffffffffffffff\n        /* \"#utility.yul\":3345:3347   */\n      dup1\n        /* \"#utility.yul\":3337:3343   */\n      dup3\n        /* \"#utility.yul\":3334:3348   */\n      gt\n        /* \"#utility.yul\":3331:3365   */\n      iszero\n      tag_138\n      jumpi\n        /* \"#utility.yul\":3361:3362   */\n      0x00\n        /* \"#utility.yul\":3358:3359   */\n      dup1\n        /* \"#utility.yul\":3351:3363   */\n      revert\n        /* \"#utility.yul\":3331:3365   */\n    tag_138:\n        /* \"#utility.yul\":3399:3405   */\n      dup2\n        /* \"#utility.yul\":3388:3397   */\n      dup7\n        /* \"#utility.yul\":3384:3406   */\n      add\n        /* \"#utility.yul\":3374:3406   */\n      swap2\n      pop\n        /* \"#utility.yul\":3444:3451   */\n      dup7\n        /* \"#utility.yul\":3437:3441   */\n      0x1f\n        /* \"#utility.yul\":3433:3435   */\n      dup4\n        /* \"#utility.yul\":3429:3442   */\n      add\n        /* \"#utility.yul\":3425:3452   */\n      slt\n        /* \"#utility.yul\":3415:3470   */\n      tag_139\n      jumpi\n        /* \"#utility.yul\":3466:3467   */\n      0x00\n        /* \"#utility.yul\":3463:3464   */\n      dup1\n        /* \"#utility.yul\":3456:3468   */\n      revert\n        /* \"#utility.yul\":3415:3470   */\n    tag_139:\n        /* \"#utility.yul\":3502:3504   */\n      dup2\n        /* \"#utility.yul\":3489:3505   */\n      calldataload\n        /* \"#utility.yul\":3524:3526   */\n      dup2\n        /* \"#utility.yul\":3520:3522   */\n      dup2\n        /* \"#utility.yul\":3517:3527   */\n      gt\n        /* \"#utility.yul\":3514:3550   */\n      iszero\n      tag_141\n      jumpi\n        /* \"#utility.yul\":3530:3548   */\n      tag_141\n      tag_110\n      jump\t// in\n    tag_141:\n        /* \"#utility.yul\":3605:3607   */\n      0x40\n        /* \"#utility.yul\":3599:3608   */\n      mload\n        /* \"#utility.yul\":3573:3575   */\n      0x1f\n        /* \"#utility.yul\":3659:3672   */\n      dup3\n      add\n      not(0x1f)\n        /* \"#utility.yul\":3655:3677   */\n      swap1\n      dup2\n      and\n        /* \"#utility.yul\":3679:3681   */\n      0x3f\n        /* \"#utility.yul\":3651:3682   */\n      add\n        /* \"#utility.yul\":3647:3687   */\n      and\n        /* \"#utility.yul\":3635:3688   */\n      dup2\n      add\n      swap1\n        /* \"#utility.yul\":3703:3721   */\n      dup4\n      dup3\n      gt\n        /* \"#utility.yul\":3723:3745   */\n      dup2\n      dup4\n      lt\n        /* \"#utility.yul\":3700:3746   */\n      or\n        /* \"#utility.yul\":3697:3769   */\n      iszero\n      tag_143\n      jumpi\n        /* \"#utility.yul\":3749:3767   */\n      tag_143\n      tag_110\n      jump\t// in\n    tag_143:\n        /* \"#utility.yul\":3789:3799   */\n      dup2\n        /* \"#utility.yul\":3785:3787   */\n      0x40\n        /* \"#utility.yul\":3778:3800   */\n      mstore\n        /* \"#utility.yul\":3824:3826   */\n      dup3\n        /* \"#utility.yul\":3816:3822   */\n      dup2\n        /* \"#utility.yul\":3809:3827   */\n      mstore\n        /* \"#utility.yul\":3866:3873   */\n      dup10\n        /* \"#utility.yul\":3859:3863   */\n      0x20\n        /* \"#utility.yul\":3854:3856   */\n      dup5\n        /* \"#utility.yul\":3850:3852   */\n      dup8\n        /* \"#utility.yul\":3846:3857   */\n      add\n        /* \"#utility.yul\":3842:3864   */\n      add\n        /* \"#utility.yul\":3839:3874   */\n      gt\n        /* \"#utility.yul\":3836:3891   */\n      iszero\n      tag_144\n      jumpi\n        /* \"#utility.yul\":3887:3888   */\n      0x00\n        /* \"#utility.yul\":3884:3885   */\n      dup1\n        /* \"#utility.yul\":3877:3889   */\n      revert\n        /* \"#utility.yul\":3836:3891   */\n    tag_144:\n        /* \"#utility.yul\":3947:3949   */\n      dup3\n        /* \"#utility.yul\":3940:3944   */\n      0x20\n        /* \"#utility.yul\":3936:3938   */\n      dup7\n        /* \"#utility.yul\":3932:3945   */\n      add\n        /* \"#utility.yul\":3925:3929   */\n      0x20\n        /* \"#utility.yul\":3917:3923   */\n      dup4\n        /* \"#utility.yul\":3913:3930   */\n      add\n        /* \"#utility.yul\":3900:3950   */\n      calldatacopy\n        /* \"#utility.yul\":3994:3995   */\n      0x00\n        /* \"#utility.yul\":3987:3991   */\n      0x20\n        /* \"#utility.yul\":3982:3984   */\n      dup5\n        /* \"#utility.yul\":3974:3980   */\n      dup4\n        /* \"#utility.yul\":3970:3985   */\n      add\n        /* \"#utility.yul\":3966:3992   */\n      add\n        /* \"#utility.yul\":3959:3996   */\n      mstore\n        /* \"#utility.yul\":4015:4021   */\n      dup1\n        /* \"#utility.yul\":4005:4021   */\n      swap8\n      pop\n      pop\n      pop\n      pop\n      pop\n      pop\n        /* \"#utility.yul\":4068:4072   */\n      0x20\n        /* \"#utility.yul\":4057:4066   */\n      dup5\n        /* \"#utility.yul\":4053:4073   */\n      add\n        /* \"#utility.yul\":4040:4074   */\n      calldataload\n        /* \"#utility.yul\":4030:4074   */\n      swap2\n      pop\n        /* \"#utility.yul\":4093:4139   */\n      tag_145\n        /* \"#utility.yul\":4135:4137   */\n      0x40\n        /* \"#utility.yul\":4124:4133   */\n      dup6\n        /* \"#utility.yul\":4120:4138   */\n      add\n        /* \"#utility.yul\":4093:4139   */\n      tag_111\n      jump\t// in\n    tag_145:\n        /* \"#utility.yul\":4083:4139   */\n      swap1\n      pop\n        /* \"#utility.yul\":3055:4145   */\n      swap3\n      pop\n      swap3\n      pop\n      swap3\n      jump\t// out\n        /* \"#utility.yul\":4150:4367   */\n    tag_71:\n        /* \"#utility.yul\":4190:4191   */\n      0x00\n        /* \"#utility.yul\":4216:4217   */\n      dup3\n        /* \"#utility.yul\":4206:4338   */\n      tag_147\n      jumpi\n        /* \"#utility.yul\":4260:4270   */\n      0x4e487b71\n        /* \"#utility.yul\":4255:4258   */\n      0xe0\n        /* \"#utility.yul\":4251:4271   */\n      shl\n        /* \"#utility.yul\":4248:4249   */\n      0x00\n        /* \"#utility.yul\":4241:4272   */\n      mstore\n        /* \"#utility.yul\":4295:4299   */\n      0x12\n        /* \"#utility.yul\":4292:4293   */\n      0x04\n        /* \"#utility.yul\":4285:4300   */\n      mstore\n        /* \"#utility.yul\":4323:4327   */\n      0x24\n        /* \"#utility.yul\":4320:4321   */\n      0x00\n        /* \"#utility.yul\":4313:4328   */\n      revert\n        /* \"#utility.yul\":4206:4338   */\n    tag_147:\n      pop\n        /* \"#utility.yul\":4352:4361   */\n      div\n      swap1\n        /* \"#utility.yul\":4150:4367   */\n      jump\t// out\n        /* \"#utility.yul\":4372:4752   */\n    tag_78:\n        /* \"#utility.yul\":4451:4452   */\n      0x01\n        /* \"#utility.yul\":4447:4459   */\n      dup2\n      dup2\n      shr\n      swap1\n        /* \"#utility.yul\":4494:4506   */\n      dup3\n      and\n      dup1\n        /* \"#utility.yul\":4515:4576   */\n      tag_149\n      jumpi\n        /* \"#utility.yul\":4569:4573   */\n      0x7f\n        /* \"#utility.yul\":4561:4567   */\n      dup3\n        /* \"#utility.yul\":4557:4574   */\n      and\n        /* \"#utility.yul\":4547:4574   */\n      swap2\n      pop\n        /* \"#utility.yul\":4515:4576   */\n    tag_149:\n        /* \"#utility.yul\":4622:4624   */\n      0x20\n        /* \"#utility.yul\":4614:4620   */\n      dup3\n        /* \"#utility.yul\":4611:4625   */\n      lt\n        /* \"#utility.yul\":4591:4609   */\n      dup2\n        /* \"#utility.yul\":4588:4626   */\n      sub\n        /* \"#utility.yul\":4585:4746   */\n      tag_150\n      jumpi\n        /* \"#utility.yul\":4668:4678   */\n      0x4e487b71\n        /* \"#utility.yul\":4663:4666   */\n      0xe0\n        /* \"#utility.yul\":4659:4679   */\n      shl\n        /* \"#utility.yul\":4656:4657   */\n      0x00\n        /* \"#utility.yul\":4649:4680   */\n      mstore\n        /* \"#utility.yul\":4703:4707   */\n      0x22\n        /* \"#utility.yul\":4700:4701   */\n      0x04\n        /* \"#utility.yul\":4693:4708   */\n      mstore\n        /* \"#utility.yul\":4731:4735   */\n      0x24\n        /* \"#utility.yul\":4728:4729   */\n      0x00\n        /* \"#utility.yul\":4721:4736   */\n      revert\n        /* \"#utility.yul\":4585:4746   */\n    tag_150:\n      pop\n        /* \"#utility.yul\":4372:4752   */\n      swap2\n      swap1\n      pop\n      jump\t// out\n        /* \"#utility.yul\":4757:4989   */\n    tag_87:\n        /* \"#utility.yul\":4796:4799   */\n      0x00\n        /* \"#utility.yul\":4817:4834   */\n      0x01\n      dup3\n      add\n        /* \"#utility.yul\":4814:4954   */\n      tag_152\n      jumpi\n        /* \"#utility.yul\":4876:4886   */\n      0x4e487b71\n        /* \"#utility.yul\":4871:4874   */\n      0xe0\n        /* \"#utility.yul\":4867:4887   */\n      shl\n        /* \"#utility.yul\":4864:4865   */\n      0x00\n        /* \"#utility.yul\":4857:4888   */\n      mstore\n        /* \"#utility.yul\":4911:4915   */\n      0x11\n        /* \"#utility.yul\":4908:4909   */\n      0x04\n        /* \"#utility.yul\":4901:4916   */\n      mstore\n        /* \"#utility.yul\":4939:4943   */\n      0x24\n        /* \"#utility.yul\":4936:4937   */\n      0x00\n        /* \"#utility.yul\":4929:4944   */\n      revert\n        /* \"#utility.yul\":4814:4954   */\n    tag_152:\n      pop\n        /* \"#utility.yul\":4981:4982   */\n      0x01\n        /* \"#utility.yul\":4970:4983   */\n      add\n      swap1\n        /* \"#utility.yul\":4757:4989   */\n      jump\t// out\n\n    auxdata: 0xa2646970667358221220148cc88e5e45f07159e413f4a52fdb06fa7bd3bb226a9a9d22393ae086d6ebc764736f6c634300080d0033\n}\n","bytecode":{"linkReferences":{},"object":"608060405234801561001057600080fd5b506040516108c23803806108c283398101604081905261002f91610057565b600280546001600160a01b0319166001600160a01b0392909216919091179055600355610094565b6000806040838503121561006a57600080fd5b825160208401519092506001600160a01b038116811461008957600080fd5b809150509250929050565b61081f806100a36000396000f3fe60806040526004361061009c5760003560e01c806381d12c581161006457806381d12c58146101a657806382fde093146101d75780638a9cfd55146101ed578063937e09b11461020d578063d7bb99ba14610223578063d7d1bbdb1461022b57600080fd5b806303441006146100a15780630a144391146100c35780633fad1834146101085780634051ddac14610127578063481c6a751461016e575b600080fd5b3480156100ad57600080fd5b506100c16100bc3660046105a2565b61024b565b005b3480156100cf57600080fd5b506100f36100de3660046105d3565b60046020526000908152604090205460ff1681565b60405190151581526020015b60405180910390f35b34801561011457600080fd5b506000545b6040519081526020016100ff565b34801561013357600080fd5b506003546000546005546002546040805194855247602086015284019290925260608301526001600160a01b0316608082015260a0016100ff565b34801561017a57600080fd5b5060025461018e906001600160a01b031681565b6040516001600160a01b0390911681526020016100ff565b3480156101b257600080fd5b506101c66101c13660046105a2565b6102ff565b6040516100ff9594939291906105f7565b3480156101e357600080fd5b5061011960055481565b3480156101f957600080fd5b506100c161020836600461069b565b6103c6565b34801561021957600080fd5b5061011960035481565b6100c161044f565b34801561023757600080fd5b506100c16102463660046105a2565b61048c565b6002546001600160a01b0316331461026257600080fd5b60008181526001602052604090206002810154600160a01b900460ff161561028957600080fd5b60026005546102989190610766565b8160030154116102a757600080fd5b600281015460018201546040516001600160a01b039092169181156108fc0291906000818181858888f193505050501580156102e7573d6000803e3d6000fd5b50600201805460ff60a01b1916600160a01b17905550565b60016020526000908152604090208054819061031a90610788565b80601f016020809104026020016040519081016040528092919081815260200182805461034690610788565b80156103935780601f1061036857610100808354040283529160200191610393565b820191906000526020600020905b81548152906001019060200180831161037657829003601f168201915b5050505060018301546002840154600390940154929390926001600160a01b0382169250600160a01b90910460ff169085565b6002546001600160a01b031633146103dd57600080fd5b60008054600190829081806103f1836107c2565b909155508152602080820192909252604001600020855190925061041a91839190870190610509565b5060018101929092556002820180546001600160a81b0319166001600160a01b03909216919091179055600060039091015550565b600354341161045d57600080fd5b336000908152600460205260408120805460ff191660011790556005805491610485836107c2565b9190505550565b600081815260016020908152604080832033845260049092529091205460ff166104b557600080fd5b33600090815260048201602052604090205460ff16156104d457600080fd5b3360009081526004820160205260408120805460ff1916600117905560038201805491610500836107c2565b91905055505050565b82805461051590610788565b90600052602060002090601f016020900481019282610537576000855561057d565b82601f1061055057805160ff191683800117855561057d565b8280016001018555821561057d579182015b8281111561057d578251825591602001919060010190610562565b5061058992915061058d565b5090565b5b80821115610589576000815560010161058e565b6000602082840312156105b457600080fd5b5035919050565b6001600160a01b03811681146105d057600080fd5b50565b6000602082840312156105e557600080fd5b81356105f0816105bb565b9392505050565b60a08152600086518060a084015260005b81811015610625576020818a0181015160c0868401015201610608565b8181111561063757600060c083860101525b5060208301879052601f01601f1916820160c001905061066260408301866001600160a01b03169052565b9215156060820152608001529392505050565b634e487b7160e01b600052604160045260246000fd5b8035610696816105bb565b919050565b6000806000606084860312156106b057600080fd5b833567ffffffffffffffff808211156106c857600080fd5b818601915086601f8301126106dc57600080fd5b8135818111156106ee576106ee610675565b604051601f8201601f19908116603f0116810190838211818310171561071657610716610675565b8160405282815289602084870101111561072f57600080fd5b8260208601602083013760006020848301015280975050505050506020840135915061075d6040850161068b565b90509250925092565b60008261078357634e487b7160e01b600052601260045260246000fd5b500490565b600181811c9082168061079c57607f821691505b6020821081036107bc57634e487b7160e01b600052602260045260246000fd5b50919050565b6000600182016107e257634e487b7160e01b600052601160045260246000fd5b506001019056fea2646970667358221220148cc88e5e45f07159e413f4a52fdb06fa7bd3bb226a9a9d22393ae086d6ebc764736f6c634300080d0033","opcodes":"PUSH1 0x80 PUSH1 0x40 MSTORE CALLVALUE DUP1 ISZERO PUSH2 0x10 JUMPI PUSH1 0x0 DUP1 REVERT JUMPDEST POP PUSH1 0x40 MLOAD PUSH2 0x8C2 CODESIZE SUB DUP1 PUSH2 0x8C2 DUP4 CODECOPY DUP2 ADD PUSH1 0x40 DUP2 SWAP1 MSTORE PUSH2 0x2F SWAP2 PUSH2 0x57 JUMP JUMPDEST PUSH1 0x2 DUP1 SLOAD PUSH1 0x1 PUSH1 0x1 PUSH1 0xA0 SHL SUB NOT AND PUSH1 0x1 PUSH1 0x1 PUSH1 0xA0 SHL SUB SWAP3 SWAP1 SWAP3 AND SWAP2 SWAP1 SWAP2 OR SWAP1 SSTORE PUSH1 0x3 SSTORE PUSH2 0x94 JUMP JUMPDEST PUSH1 0x0 DUP1 PUSH1 0x40 DUP4 DUP6 SUB SLT ISZERO PUSH2 0x6A JUMPI PUSH1 0x0 DUP1 REVERT JUMPDEST DUP3 MLOAD PUSH1 0x20 DUP5 ADD MLOAD SWAP1 SWAP3 POP PUSH1 0x1 PUSH1 0x1 PUSH1 0xA0 SHL SUB DUP2 AND DUP2 EQ PUSH2 0x89 JUMPI PUSH1 0x0 DUP1 REVERT JUMPDEST DUP1 SWAP2 POP POP SWAP3 POP SWAP3 SWAP1 POP JUMP JUMPDEST PUSH2 0x81F DUP1 PUSH2 0xA3 PUSH1 0x0 CODECOPY PUSH1 0x0 RETURN INVALID PUSH1 0x80 PUSH1 0x40 MSTORE PUSH1 0x4 CALLDATASIZE LT PUSH2 0x9C JUMPI PUSH1 0x0 CALLDATALOAD PUSH1 0xE0 SHR DUP1 PUSH4 0x81D12C58 GT PUSH2 0x64 JUMPI DUP1 PUSH4 0x81D12C58 EQ PUSH2 0x1A6 JUMPI DUP1 PUSH4 0x82FDE093 EQ PUSH2 0x1D7 JUMPI DUP1 PUSH4 0x8A9CFD55 EQ PUSH2 0x1ED JUMPI DUP1 PUSH4 0x937E09B1 EQ PUSH2 0x20D JUMPI DUP1 PUSH4 0xD7BB99BA EQ PUSH2 0x223 JUMPI DUP1 PUSH4 0xD7D1BBDB EQ PUSH2 0x22B JUMPI PUSH1 0x0 DUP1 REVERT JUMPDEST DUP1 PUSH4 0x3441006 EQ PUSH2 0xA1 JUMPI DUP1 PUSH4 0xA144391 EQ PUSH2 0xC3 JUMPI DUP1 PUSH4 0x3FAD1834 EQ PUSH2 0x108 JUMPI DUP1 PUSH4 0x4051DDAC EQ PUSH2 0x127 JUMPI DUP1 PUSH4 0x481C6A75 EQ PUSH2 0x16E JUMPI JUMPDEST PUSH1 0x0 DUP1 REVERT JUMPDEST CALLVALUE DUP1 ISZERO PUSH2 0xAD JUMPI PUSH1 0x0 DUP1 REVERT JUMPDEST POP PUSH2 0xC1 PUSH2 0xBC CALLDATASIZE PUSH1 0x4 PUSH2 0x5A2 JUMP JUMPDEST PUSH2 0x24B JUMP JUMPDEST STOP JUMPDEST CALLVALUE DUP1 ISZERO PUSH2 0xCF JUMPI PUSH1 0x0 DUP1 REVERT JUMPDEST POP PUSH2 0xF3 PUSH2 0xDE CALLDATASIZE PUSH1 0x4 PUSH2 0x5D3 JUMP JUMPDEST PUSH1 0x4 PUSH1 0x20 MSTORE PUSH1 0x0 SWAP1 DUP2 MSTORE PUSH1 0x40 SWAP1 KECCAK256 SLOAD PUSH1 0xFF AND DUP2 JUMP JUMPDEST PUSH1 0x40 MLOAD SWAP1 ISZERO ISZERO DUP2 MSTORE PUSH1 0x20 ADD JUMPDEST PUSH1 0x40 MLOAD DUP1 SWAP2 SUB SWAP1 RETURN JUMPDEST CALLVALUE DUP1 ISZERO PUSH2 0x114 JUMPI PUSH1 0x0 DUP1 REVERT JUMPDEST POP PUSH1 0x0 SLOAD JUMPDEST PUSH1 0x40 MLOAD SWAP1 DUP2 MSTORE PUSH1 0x20 ADD PUSH2 0xFF JUMP JUMPDEST CALLVALUE DUP1 ISZERO PUSH2 0x133 JUMPI PUSH1 0x0 DUP1 REVERT JUMPDEST POP PUSH1 0x3 SLOAD PUSH1 0x0 SLOAD PUSH1 0x5 SLOAD PUSH1 0x2 SLOAD PUSH1 0x40 DUP1 MLOAD SWAP5 DUP6 MSTORE SELFBALANCE PUSH1 0x20 DUP7 ADD MSTORE DUP5 ADD SWAP3 SWAP1 SWAP3 MSTORE PUSH1 0x60 DUP4 ADD MSTORE PUSH1 0x1 PUSH1 0x1 PUSH1 0xA0 SHL SUB AND PUSH1 0x80 DUP3 ADD MSTORE PUSH1 0xA0 ADD PUSH2 0xFF JUMP JUMPDEST CALLVALUE DUP1 ISZERO PUSH2 0x17A JUMPI PUSH1 0x0 DUP1 REVERT JUMPDEST POP PUSH1 0x2 SLOAD PUSH2 0x18E SWAP1 PUSH1 0x1 PUSH1 0x1 PUSH1 0xA0 SHL SUB AND DUP2 JUMP JUMPDEST PUSH1 0x40 MLOAD PUSH1 0x1 PUSH1 0x1 PUSH1 0xA0 SHL SUB SWAP1 SWAP2 AND DUP2 MSTORE PUSH1 0x20 ADD PUSH2 0xFF JUMP JUMPDEST CALLVALUE DUP1 ISZERO PUSH2 0x1B2 JUMPI PUSH1 0x0 DUP1 REVERT JUMPDEST POP PUSH2 0x1C6 PUSH2 0x1C1 CALLDATASIZE PUSH1 0x4 PUSH2 0x5A2 JUMP JUMPDEST PUSH2 0x2FF JUMP JUMPDEST PUSH1 0x40 MLOAD PUSH2 0xFF SWAP6 SWAP5 SWAP4 SWAP3 SWAP2 SWAP1 PUSH2 0x5F7 JUMP JUMPDEST CALLVALUE DUP1 ISZERO PUSH2 0x1E3 JUMPI PUSH1 0x0 DUP1 REVERT JUMPDEST POP PUSH2 0x119 PUSH1 0x5 SLOAD DUP2 JUMP JUMPDEST CALLVALUE DUP1 ISZERO PUSH2 0x1F9 JUMPI PUSH1 0x0 DUP1 REVERT JUMPDEST POP PUSH2 0xC1 PUSH2 0x208 CALLDATASIZE PUSH1 0x4 PUSH2 0x69B JUMP JUMPDEST PUSH2 0x3C6 JUMP JUMPDEST CALLVALUE DUP1 ISZERO PUSH2 0x219 JUMPI PUSH1 0x0 DUP1 REVERT JUMPDEST POP PUSH2 0x119 PUSH1 0x3 SLOAD DUP2 JUMP JUMPDEST PUSH2 0xC1 PUSH2 0x44F JUMP JUMPDEST CALLVALUE DUP1 ISZERO PUSH2 0x237 JUMPI PUSH1 0x0 DUP1 REVERT JUMPDEST POP PUSH2 0xC1 PUSH2 0x246 CALLDATASIZE PUSH1 0x4 PUSH2 0x5A2 JUMP JUMPDEST PUSH2 0x48C JUMP JUMPDEST PUSH1 0x2 SLOAD PUSH1 0x1 PUSH1 0x1 PUSH1 0xA0 SHL SUB AND CALLER EQ PUSH2 0x262 JUMPI PUSH1 0x0 DUP1 REVERT JUMPDEST PUSH1 0x0 DUP2 DUP2 MSTORE PUSH1 0x1 PUSH1 0x20 MSTORE PUSH1 0x40 SWAP1 KECCAK256 PUSH1 0x2 DUP2 ADD SLOAD PUSH1 0x1 PUSH1 0xA0 SHL SWAP1 DIV PUSH1 0xFF AND ISZERO PUSH2 0x289 JUMPI PUSH1 0x0 DUP1 REVERT JUMPDEST PUSH1 0x2 PUSH1 0x5 SLOAD PUSH2 0x298 SWAP2 SWAP1 PUSH2 0x766 JUMP JUMPDEST DUP2 PUSH1 0x3 ADD SLOAD GT PUSH2 0x2A7 JUMPI PUSH1 0x0 DUP1 REVERT JUMPDEST PUSH1 0x2 DUP2 ADD SLOAD PUSH1 0x1 DUP3 ADD SLOAD PUSH1 0x40 MLOAD PUSH1 0x1 PUSH1 0x1 PUSH1 0xA0 SHL SUB SWAP1 SWAP3 AND SWAP2 DUP2 ISZERO PUSH2 0x8FC MUL SWAP2 SWAP1 PUSH1 0x0 DUP2 DUP2 DUP2 DUP6 DUP9 DUP9 CALL SWAP4 POP POP POP POP ISZERO DUP1 ISZERO PUSH2 0x2E7 JUMPI RETURNDATASIZE PUSH1 0x0 DUP1 RETURNDATACOPY RETURNDATASIZE PUSH1 0x0 REVERT JUMPDEST POP PUSH1 0x2 ADD DUP1 SLOAD PUSH1 0xFF PUSH1 0xA0 SHL NOT AND PUSH1 0x1 PUSH1 0xA0 SHL OR SWAP1 SSTORE POP JUMP JUMPDEST PUSH1 0x1 PUSH1 0x20 MSTORE PUSH1 0x0 SWAP1 DUP2 MSTORE PUSH1 0x40 SWAP1 KECCAK256 DUP1 SLOAD DUP2 SWAP1 PUSH2 0x31A SWAP1 PUSH2 0x788 JUMP JUMPDEST DUP1 PUSH1 0x1F ADD PUSH1 0x20 DUP1 SWAP2 DIV MUL PUSH1 0x20 ADD PUSH1 0x40 MLOAD SWAP1 DUP2 ADD PUSH1 0x40 MSTORE DUP1 SWAP3 SWAP2 SWAP1 DUP2 DUP2 MSTORE PUSH1 0x20 ADD DUP3 DUP1 SLOAD PUSH2 0x346 SWAP1 PUSH2 0x788 JUMP JUMPDEST DUP1 ISZERO PUSH2 0x393 JUMPI DUP1 PUSH1 0x1F LT PUSH2 0x368 JUMPI PUSH2 0x100 DUP1 DUP4 SLOAD DIV MUL DUP4 MSTORE SWAP2 PUSH1 0x20 ADD SWAP2 PUSH2 0x393 JUMP JUMPDEST DUP3 ADD SWAP2 SWAP1 PUSH1 0x0 MSTORE PUSH1 0x20 PUSH1 0x0 KECCAK256 SWAP1 JUMPDEST DUP2 SLOAD DUP2 MSTORE SWAP1 PUSH1 0x1 ADD SWAP1 PUSH1 0x20 ADD DUP1 DUP4 GT PUSH2 0x376 JUMPI DUP3 SWAP1 SUB PUSH1 0x1F AND DUP3 ADD SWAP2 JUMPDEST POP POP POP POP PUSH1 0x1 DUP4 ADD SLOAD PUSH1 0x2 DUP5 ADD SLOAD PUSH1 0x3 SWAP1 SWAP5 ADD SLOAD SWAP3 SWAP4 SWAP1 SWAP3 PUSH1 0x1 PUSH1 0x1 PUSH1 0xA0 SHL SUB DUP3 AND SWAP3 POP PUSH1 0x1 PUSH1 0xA0 SHL SWAP1 SWAP2 DIV PUSH1 0xFF AND SWAP1 DUP6 JUMP JUMPDEST PUSH1 0x2 SLOAD PUSH1 0x1 PUSH1 0x1 PUSH1 0xA0 SHL SUB AND CALLER EQ PUSH2 0x3DD JUMPI PUSH1 0x0 DUP1 REVERT JUMPDEST PUSH1 0x0 DUP1 SLOAD PUSH1 0x1 SWAP1 DUP3 SWAP1 DUP2 DUP1 PUSH2 0x3F1 DUP4 PUSH2 0x7C2 JUMP JUMPDEST SWAP1 SWAP2 SSTORE POP DUP2 MSTORE PUSH1 0x20 DUP1 DUP3 ADD SWAP3 SWAP1 SWAP3 MSTORE PUSH1 0x40 ADD PUSH1 0x0 KECCAK256 DUP6 MLOAD SWAP1 SWAP3 POP PUSH2 0x41A SWAP2 DUP4 SWAP2 SWAP1 DUP8 ADD SWAP1 PUSH2 0x509 JUMP JUMPDEST POP PUSH1 0x1 DUP2 ADD SWAP3 SWAP1 SWAP3 SSTORE PUSH1 0x2 DUP3 ADD DUP1 SLOAD PUSH1 0x1 PUSH1 0x1 PUSH1 0xA8 SHL SUB NOT AND PUSH1 0x1 PUSH1 0x1 PUSH1 0xA0 SHL SUB SWAP1 SWAP3 AND SWAP2 SWAP1 SWAP2 OR SWAP1 SSTORE PUSH1 0x0 PUSH1 0x3 SWAP1 SWAP2 ADD SSTORE POP JUMP JUMPDEST PUSH1 0x3 SLOAD CALLVALUE GT PUSH2 0x45D JUMPI PUSH1 0x0 DUP1 REVERT JUMPDEST CALLER PUSH1 0x0 SWAP1 DUP2 MSTORE PUSH1 0x4 PUSH1 0x20 MSTORE PUSH1 0x40 DUP2 KECCAK256 DUP1 SLOAD PUSH1 0xFF NOT AND PUSH1 0x1 OR SWAP1 SSTORE PUSH1 0x5 DUP1 SLOAD SWAP2 PUSH2 0x485 DUP4 PUSH2 0x7C2 JUMP JUMPDEST SWAP2 SWAP1 POP SSTORE POP JUMP JUMPDEST PUSH1 0x0 DUP2 DUP2 MSTORE PUSH1 0x1 PUSH1 0x20 SWAP1 DUP2 MSTORE PUSH1 0x40 DUP1 DUP4 KECCAK256 CALLER DUP5 MSTORE PUSH1 0x4 SWAP1 SWAP3 MSTORE SWAP1 SWAP2 KECCAK256 SLOAD PUSH1 0xFF AND PUSH2 0x4B5 JUMPI PUSH1 0x0 DUP1 REVERT JUMPDEST CALLER PUSH1 0x0 SWAP1 DUP2 MSTORE PUSH1 0x4 DUP3 ADD PUSH1 0x20 MSTORE PUSH1 0x40 SWAP1 KECCAK256 SLOAD PUSH1 0xFF AND ISZERO PUSH2 0x4D4 JUMPI PUSH1 0x0 DUP1 REVERT JUMPDEST CALLER PUSH1 0x0 SWAP1 DUP2 MSTORE PUSH1 0x4 DUP3 ADD PUSH1 0x20 MSTORE PUSH1 0x40 DUP2 KECCAK256 DUP1 SLOAD PUSH1 0xFF NOT AND PUSH1 0x1 OR SWAP1 SSTORE PUSH1 0x3 DUP3 ADD DUP1 SLOAD SWAP2 PUSH2 0x500 DUP4 PUSH2 0x7C2 JUMP JUMPDEST SWAP2 SWAP1 POP SSTORE POP POP POP JUMP JUMPDEST DUP3 DUP1 SLOAD PUSH2 0x515 SWAP1 PUSH2 0x788 JUMP JUMPDEST SWAP1 PUSH1 0x0 MSTORE PUSH1 0x20 PUSH1 0x0 KECCAK256 SWAP1 PUSH1 0x1F ADD PUSH1 0x20 SWAP1 DIV DUP2 ADD SWAP3 DUP3 PUSH2 0x537 JUMPI PUSH1 0x0 DUP6 SSTORE PUSH2 0x57D JUMP JUMPDEST DUP3 PUSH1 0x1F LT PUSH2 0x550 JUMPI DUP1 MLOAD PUSH1 0xFF NOT AND DUP4 DUP1 ADD OR DUP6 SSTORE PUSH2 0x57D JUMP JUMPDEST DUP3 DUP1 ADD PUSH1 0x1 ADD DUP6 SSTORE DUP3 ISZERO PUSH2 0x57D JUMPI SWAP2 DUP3 ADD JUMPDEST DUP3 DUP2 GT ISZERO PUSH2 0x57D JUMPI DUP3 MLOAD DUP3 SSTORE SWAP2 PUSH1 0x20 ADD SWAP2 SWAP1 PUSH1 0x1 ADD SWAP1 PUSH2 0x562 JUMP JUMPDEST POP PUSH2 0x589 SWAP3 SWAP2 POP PUSH2 0x58D JUMP JUMPDEST POP SWAP1 JUMP JUMPDEST JUMPDEST DUP1 DUP3 GT ISZERO PUSH2 0x589 JUMPI PUSH1 0x0 DUP2 SSTORE PUSH1 0x1 ADD PUSH2 0x58E JUMP JUMPDEST PUSH1 0x0 PUSH1 0x20 DUP3 DUP5 SUB SLT ISZERO PUSH2 0x5B4 JUMPI PUSH1 0x0 DUP1 REVERT JUMPDEST POP CALLDATALOAD SWAP2 SWAP1 POP JUMP JUMPDEST PUSH1 0x1 PUSH1 0x1 PUSH1 0xA0 SHL SUB DUP2 AND DUP2 EQ PUSH2 0x5D0 JUMPI PUSH1 0x0 DUP1 REVERT JUMPDEST POP JUMP JUMPDEST PUSH1 0x0 PUSH1 0x20 DUP3 DUP5 SUB SLT ISZERO PUSH2 0x5E5 JUMPI PUSH1 0x0 DUP1 REVERT JUMPDEST DUP2 CALLDATALOAD PUSH2 0x5F0 DUP2 PUSH2 0x5BB JUMP JUMPDEST SWAP4 SWAP3 POP POP POP JUMP JUMPDEST PUSH1 0xA0 DUP2 MSTORE PUSH1 0x0 DUP7 MLOAD DUP1 PUSH1 0xA0 DUP5 ADD MSTORE PUSH1 0x0 JUMPDEST DUP2 DUP2 LT ISZERO PUSH2 0x625 JUMPI PUSH1 0x20 DUP2 DUP11 ADD DUP2 ADD MLOAD PUSH1 0xC0 DUP7 DUP5 ADD ADD MSTORE ADD PUSH2 0x608 JUMP JUMPDEST DUP2 DUP2 GT ISZERO PUSH2 0x637 JUMPI PUSH1 0x0 PUSH1 0xC0 DUP4 DUP7 ADD ADD MSTORE JUMPDEST POP PUSH1 0x20 DUP4 ADD DUP8 SWAP1 MSTORE PUSH1 0x1F ADD PUSH1 0x1F NOT AND DUP3 ADD PUSH1 0xC0 ADD SWAP1 POP PUSH2 0x662 PUSH1 0x40 DUP4 ADD DUP7 PUSH1 0x1 PUSH1 0x1 PUSH1 0xA0 SHL SUB AND SWAP1 MSTORE JUMP JUMPDEST SWAP3 ISZERO ISZERO PUSH1 0x60 DUP3 ADD MSTORE PUSH1 0x80 ADD MSTORE SWAP4 SWAP3 POP POP POP JUMP JUMPDEST PUSH4 0x4E487B71 PUSH1 0xE0 SHL PUSH1 0x0 MSTORE PUSH1 0x41 PUSH1 0x4 MSTORE PUSH1 0x24 PUSH1 0x0 REVERT JUMPDEST DUP1 CALLDATALOAD PUSH2 0x696 DUP2 PUSH2 0x5BB JUMP JUMPDEST SWAP2 SWAP1 POP JUMP JUMPDEST PUSH1 0x0 DUP1 PUSH1 0x0 PUSH1 0x60 DUP5 DUP7 SUB SLT ISZERO PUSH2 0x6B0 JUMPI PUSH1 0x0 DUP1 REVERT JUMPDEST DUP4 CALLDATALOAD PUSH8 0xFFFFFFFFFFFFFFFF DUP1 DUP3 GT ISZERO PUSH2 0x6C8 JUMPI PUSH1 0x0 DUP1 REVERT JUMPDEST DUP2 DUP7 ADD SWAP2 POP DUP7 PUSH1 0x1F DUP4 ADD SLT PUSH2 0x6DC JUMPI PUSH1 0x0 DUP1 REVERT JUMPDEST DUP2 CALLDATALOAD DUP2 DUP2 GT ISZERO PUSH2 0x6EE JUMPI PUSH2 0x6EE PUSH2 0x675 JUMP JUMPDEST PUSH1 0x40 MLOAD PUSH1 0x1F DUP3 ADD PUSH1 0x1F NOT SWAP1 DUP2 AND PUSH1 0x3F ADD AND DUP2 ADD SWAP1 DUP4 DUP3 GT DUP2 DUP4 LT OR ISZERO PUSH2 0x716 JUMPI PUSH2 0x716 PUSH2 0x675 JUMP JUMPDEST DUP2 PUSH1 0x40 MSTORE DUP3 DUP2 MSTORE DUP10 PUSH1 0x20 DUP5 DUP8 ADD ADD GT ISZERO PUSH2 0x72F JUMPI PUSH1 0x0 DUP1 REVERT JUMPDEST DUP3 PUSH1 0x20 DUP7 ADD PUSH1 0x20 DUP4 ADD CALLDATACOPY PUSH1 0x0 PUSH1 0x20 DUP5 DUP4 ADD ADD MSTORE DUP1 SWAP8 POP POP POP POP POP POP PUSH1 0x20 DUP5 ADD CALLDATALOAD SWAP2 POP PUSH2 0x75D PUSH1 0x40 DUP6 ADD PUSH2 0x68B JUMP JUMPDEST SWAP1 POP SWAP3 POP SWAP3 POP SWAP3 JUMP JUMPDEST PUSH1 0x0 DUP3 PUSH2 0x783 JUMPI PUSH4 0x4E487B71 PUSH1 0xE0 SHL PUSH1 0x0 MSTORE PUSH1 0x12 PUSH1 0x4 MSTORE PUSH1 0x24 PUSH1 0x0 REVERT JUMPDEST POP DIV SWAP1 JUMP JUMPDEST PUSH1 0x1 DUP2 DUP2 SHR SWAP1 DUP3 AND DUP1 PUSH2 0x79C JUMPI PUSH1 0x7F DUP3 AND SWAP2 POP JUMPDEST PUSH1 0x20 DUP3 LT DUP2 SUB PUSH2 0x7BC JUMPI PUSH4 0x4E487B71 PUSH1 0xE0 SHL PUSH1 0x0 MSTORE PUSH1 0x22 PUSH1 0x4 MSTORE PUSH1 0x24 PUSH1 0x0 REVERT JUMPDEST POP SWAP2 SWAP1 POP JUMP JUMPDEST PUSH1 0x0 PUSH1 0x1 DUP3 ADD PUSH2 0x7E2 JUMPI PUSH4 0x4E487B71 PUSH1 0xE0 SHL PUSH1 0x0 MSTORE PUSH1 0x11 PUSH1 0x4 MSTORE PUSH1 0x24 PUSH1 0x0 REVERT JUMPDEST POP PUSH1 0x1 ADD SWAP1 JUMP INVALID LOG2 PUSH5 0x6970667358 0x22 SLT KECCAK256 EQ DUP13 0xC8 DUP15 0x5E GASLIMIT CREATE PUSH18 0x59E413F4A52FDB06FA7BD3BB226A9A9D2239 GASPRICE 0xE0 DUP7 0xD6 0xEB 0xC7 PUSH5 0x736F6C6343 STOP ADDMOD 0xD STOP CALLER "},"gasEstimates":{"creation":{"codeDepositCost":"415800","executionCost":"infinite","totalCost":"infinite"},"external":{"approveRequest(uint256)":"53388","approvers(address)":"2537","approversCount()":"2317","contribute()":"50905","createRequest(string,uint256,address)":"infinite","finalizeRequest(uint256)":"infinite","getRequestCount()":"2326","getSummary()":"8748","manager()":"2426","minimumContribution()":"2361","requests(uint256)":"infinite"}},"methodIdentifiers":{"approveRequest(uint256)":"d7d1bbdb","approvers(address)":"0a144391","approversCount()":"82fde093","contribute()":"d7bb99ba","createRequest(string,uint256,address)":"8a9cfd55","finalizeRequest(uint256)":"03441006","getRequestCount()":"3fad1834","getSummary()":"4051ddac","manager()":"481c6a75","minimumContribution()":"937e09b1","requests(uint256)":"81d12c58"}},"storageLayout":{"storage":[{"astId":56,"contract":"Campaign.sol:Campaign","label":"numRequests","offset":0,"slot":"0","type":"t_uint256"},{"astId":61,"contract":"Campaign.sol:Campaign","label":"requests","offset":0,"slot":"1","type":"t_mapping(t_uint256,t_struct(Request)54_storage)"},{"astId":63,"contract":"Campaign.sol:Campaign","label":"manager","offset":0,"slot":"2","type":"t_address"},{"astId":65,"contract":"Campaign.sol:Campaign","label":"minimumContribution","offset":0,"slot":"3","type":"t_uint256"},{"astId":69,"contract":"Campaign.sol:Campaign","label":"approvers","offset":0,"slot":"4","type":"t_mapping(t_address,t_bool)"},{"astId":71,"contract":"Campaign.sol:Campaign","label":"approversCount","offset":0,"slot":"5","type":"t_uint256"}],"types":{"t_address":{"encoding":"inplace","label":"address","numberOfBytes":"20"},"t_address_payable":{"encoding":"inplace","label":"address payable","numberOfBytes":"20"},"t_bool":{"encoding":"inplace","label":"bool","numberOfBytes":"1"},"t_mapping(t_address,t_bool)":{"encoding":"mapping","key":"t_address","label":"mapping(address => bool)","numberOfBytes":"32","value":"t_bool"},"t_mapping(t_uint256,t_struct(Request)54_storage)":{"encoding":"mapping","key":"t_uint256","label":"mapping(uint256 => struct Campaign.Request)","numberOfBytes":"32","value":"t_struct(Request)54_storage"},"t_string_storage":{"encoding":"bytes","label":"string","numberOfBytes":"32"},"t_struct(Request)54_storage":{"encoding":"inplace","label":"struct Campaign.Request","members":[{"astId":41,"contract":"Campaign.sol:Campaign","label":"description","offset":0,"slot":"0","type":"t_string_storage"},{"astId":43,"contract":"Campaign.sol:Campaign","label":"value","offset":0,"slot":"1","type":"t_uint256"},{"astId":45,"contract":"Campaign.sol:Campaign","label":"recipient","offset":0,"slot":"2","type":"t_address_payable"},{"astId":47,"contract":"Campaign.sol:Campaign","label":"complete","offset":20,"slot":"2","type":"t_bool"},{"astId":49,"contract":"Campaign.sol:Campaign","label":"approvalCount","offset":0,"slot":"3","type":"t_uint256"},{"astId":53,"contract":"Campaign.sol:Campaign","label":"approvals","offset":0,"slot":"4","type":"t_mapping(t_address,t_bool)"}],"numberOfBytes":"160"},"t_uint256":{"encoding":"inplace","label":"uint256","numberOfBytes":"32"}}},"userdoc":{"kind":"user","methods":{},"version":1}}