{"abi":[{"inputs":[{"internalType":"uint256","name":"minimum","type":"uint256"},{"internalType":"address","name":"creator","type":"address"}],"stateMutability":"nonpayable","type":"constructor"},{"inputs":[{"internalType":"uint256","name":"index","type":"uint256"}],"name":"approveRequest","outputs":[],"stateMutability":"nonpayable","type":"function"},{"inputs":[{"internalType":"address","name":"","type":"address"}],"name":"approvers","outputs":[{"internalType":"bool","name":"","type":"bool"}],"stateMutability":"view","type":"function"},{"inputs":[],"name":"approversCount","outputs":[{"internalType":"uint256","name":"","type":"uint256"}],"stateMutability":"view","type":"function"},{"inputs":[],"name":"contribute","outputs":[],"stateMutability":"payable","type":"function"},{"inputs":[{"internalType":"string","name":"description","type":"string"},{"internalType":"uint256","name":"value","type":"uint256"},{"internalType":"address payable","name":"recipient","type":"address"}],"name":"createRequest","outputs":[],"stateMutability":"nonpayable","type":"function"},{"inputs":[{"internalType":"uint256","name":"index","type":"uint256"}],"name":"finalizeRequest","outputs":[],"stateMutability":"nonpayable","type":"function"},{"inputs":[],"name":"manager","outputs":[{"internalType":"address","name":"","type":"address"}],"stateMutability":"view","type":"function"},{"inputs":[],"name":"minimumContribution","outputs":[{"internalType":"uint256","name":"","type":"uint256"}],"stateMutability":"view","type":"function"},{"inputs":[{"internalType":"uint256","name":"","type":"uint256"}],"name":"requests","outputs":[{"internalType":"string","name":"description","type":"string"},{"internalType":"uint256","name":"value","type":"uint256"},{"internalType":"address payable","name":"recipient","type":"address"},{"internalType":"bool","name":"complete","type":"bool"},{"internalType":"uint256","name":"approvalCount","type":"uint256"}],"stateMutability":"view","type":"function"}],"devdoc":{"kind":"dev","methods":{},"version":1},"evm":{"assembly":"    /* \"Campaign.sol\":455:2199  contract Campaign {... */\n  mstore(0x40, 0x80)\n    /* \"Campaign.sol\":990:1106  constructor(uint minimum, address creator) {... */\n  callvalue\n  dup1\n  iszero\n  tag_1\n  jumpi\n  0x00\n  dup1\n  revert\ntag_1:\n  pop\n  mload(0x40)\n  sub(codesize, bytecodeSize)\n  dup1\n  bytecodeSize\n  dup4\n  codecopy\n  dup2\n  add\n  0x40\n  dup2\n  swap1\n  mstore\n  tag_2\n  swap2\n  tag_3\n  jump\t// in\ntag_2:\n    /* \"Campaign.sol\":1043:1050  manager */\n  0x02\n    /* \"Campaign.sol\":1043:1060  manager = creator */\n  dup1\n  sload\n  not(sub(shl(0xa0, 0x01), 0x01))\n  and\n  sub(shl(0xa0, 0x01), 0x01)\n  swap3\n  swap1\n  swap3\n  and\n  swap2\n  swap1\n  swap2\n  or\n  swap1\n  sstore\n    /* \"Campaign.sol\":1070:1089  minimumContribution */\n  0x03\n    /* \"Campaign.sol\":1070:1099  minimumContribution = minimum */\n  sstore\n    /* \"Campaign.sol\":455:2199  contract Campaign {... */\n  jump(tag_7)\n    /* \"#utility.yul\":14:365   */\ntag_3:\n    /* \"#utility.yul\":93:99   */\n  0x00\n    /* \"#utility.yul\":101:107   */\n  dup1\n    /* \"#utility.yul\":154:156   */\n  0x40\n    /* \"#utility.yul\":142:151   */\n  dup4\n    /* \"#utility.yul\":133:140   */\n  dup6\n    /* \"#utility.yul\":129:152   */\n  sub\n    /* \"#utility.yul\":125:157   */\n  slt\n    /* \"#utility.yul\":122:174   */\n  iszero\n  tag_9\n  jumpi\n    /* \"#utility.yul\":170:171   */\n  0x00\n    /* \"#utility.yul\":167:168   */\n  dup1\n    /* \"#utility.yul\":160:172   */\n  revert\n    /* \"#utility.yul\":122:174   */\ntag_9:\n    /* \"#utility.yul\":193:209   */\n  dup3\n  mload\n    /* \"#utility.yul\":252:254   */\n  0x20\n    /* \"#utility.yul\":237:255   */\n  dup5\n  add\n    /* \"#utility.yul\":231:256   */\n  mload\n    /* \"#utility.yul\":193:209   */\n  swap1\n  swap3\n  pop\n  sub(shl(0xa0, 0x01), 0x01)\n    /* \"#utility.yul\":285:316   */\n  dup2\n  and\n    /* \"#utility.yul\":275:317   */\n  dup2\n  eq\n    /* \"#utility.yul\":265:335   */\n  tag_10\n  jumpi\n    /* \"#utility.yul\":331:332   */\n  0x00\n    /* \"#utility.yul\":328:329   */\n  dup1\n    /* \"#utility.yul\":321:333   */\n  revert\n    /* \"#utility.yul\":265:335   */\ntag_10:\n    /* \"#utility.yul\":354:359   */\n  dup1\n    /* \"#utility.yul\":344:359   */\n  swap2\n  pop\n  pop\n    /* \"#utility.yul\":14:365   */\n  swap3\n  pop\n  swap3\n  swap1\n  pop\n  jump\t// out\ntag_7:\n    /* \"Campaign.sol\":455:2199  contract Campaign {... */\n  dataSize(sub_0)\n  dup1\n  dataOffset(sub_0)\n  0x00\n  codecopy\n  0x00\n  return\nstop\n\nsub_0: assembly {\n        /* \"Campaign.sol\":455:2199  contract Campaign {... */\n      mstore(0x40, 0x80)\n      jumpi(tag_1, lt(calldatasize, 0x04))\n      shr(0xe0, calldataload(0x00))\n      dup1\n      0x82fde093\n      gt\n      tag_11\n      jumpi\n      dup1\n      0x82fde093\n      eq\n      tag_6\n      jumpi\n      dup1\n      0x8a9cfd55\n      eq\n      tag_7\n      jumpi\n      dup1\n      0x937e09b1\n      eq\n      tag_8\n      jumpi\n      dup1\n      0xd7bb99ba\n      eq\n      tag_9\n      jumpi\n      dup1\n      0xd7d1bbdb\n      eq\n      tag_10\n      jumpi\n      0x00\n      dup1\n      revert\n    tag_11:\n      dup1\n      0x03441006\n      eq\n      tag_2\n      jumpi\n      dup1\n      0x0a144391\n      eq\n      tag_3\n      jumpi\n      dup1\n      0x481c6a75\n      eq\n      tag_4\n      jumpi\n      dup1\n      0x81d12c58\n      eq\n      tag_5\n      jumpi\n    tag_1:\n      0x00\n      dup1\n      revert\n        /* \"Campaign.sol\":1889:2197  function finalizeRequest(uint index) public restricted {... */\n    tag_2:\n      callvalue\n      dup1\n      iszero\n      tag_12\n      jumpi\n      0x00\n      dup1\n      revert\n    tag_12:\n      pop\n      tag_13\n      tag_14\n      calldatasize\n      0x04\n      tag_15\n      jump\t// in\n    tag_14:\n      tag_16\n      jump\t// in\n    tag_13:\n      stop\n        /* \"Campaign.sol\":825:866  mapping(address => bool) public approvers */\n    tag_3:\n      callvalue\n      dup1\n      iszero\n      tag_17\n      jumpi\n      0x00\n      dup1\n      revert\n    tag_17:\n      pop\n      tag_18\n      tag_19\n      calldatasize\n      0x04\n      tag_20\n      jump\t// in\n    tag_19:\n      mstore(0x20, 0x04)\n      0x00\n      swap1\n      dup2\n      mstore\n      0x40\n      swap1\n      keccak256\n      sload\n      0xff\n      and\n      dup2\n      jump\n    tag_18:\n      mload(0x40)\n        /* \"#utility.yul\":848:862   */\n      swap1\n      iszero\n        /* \"#utility.yul\":841:863   */\n      iszero\n        /* \"#utility.yul\":823:864   */\n      dup2\n      mstore\n        /* \"#utility.yul\":811:813   */\n      0x20\n        /* \"#utility.yul\":796:814   */\n      add\n        /* \"Campaign.sol\":825:866  mapping(address => bool) public approvers */\n    tag_22:\n      mload(0x40)\n      dup1\n      swap2\n      sub\n      swap1\n      return\n        /* \"Campaign.sol\":755:777  address public manager */\n    tag_4:\n      callvalue\n      dup1\n      iszero\n      tag_24\n      jumpi\n      0x00\n      dup1\n      revert\n    tag_24:\n      pop\n      sload(0x02)\n      tag_25\n      swap1\n      sub(shl(0xa0, 0x01), 0x01)\n      and\n      dup2\n      jump\n    tag_25:\n      mload(0x40)\n      sub(shl(0xa0, 0x01), 0x01)\n        /* \"#utility.yul\":1148:1180   */\n      swap1\n      swap2\n      and\n        /* \"#utility.yul\":1130:1181   */\n      dup2\n      mstore\n        /* \"#utility.yul\":1118:1120   */\n      0x20\n        /* \"#utility.yul\":1103:1121   */\n      add\n        /* \"Campaign.sol\":755:777  address public manager */\n      tag_22\n        /* \"#utility.yul\":984:1187   */\n      jump\n        /* \"Campaign.sol\":708:748  mapping(uint => Request) public requests */\n    tag_5:\n      callvalue\n      dup1\n      iszero\n      tag_29\n      jumpi\n      0x00\n      dup1\n      revert\n    tag_29:\n      pop\n      tag_30\n      tag_31\n      calldatasize\n      0x04\n      tag_15\n      jump\t// in\n    tag_31:\n      tag_32\n      jump\t// in\n    tag_30:\n      mload(0x40)\n      tag_22\n      swap6\n      swap5\n      swap4\n      swap3\n      swap2\n      swap1\n      tag_34\n      jump\t// in\n        /* \"Campaign.sol\":872:898  uint public approversCount */\n    tag_6:\n      callvalue\n      dup1\n      iszero\n      tag_35\n      jumpi\n      0x00\n      dup1\n      revert\n    tag_35:\n      pop\n      tag_36\n      sload(0x05)\n      dup2\n      jump\n    tag_36:\n      mload(0x40)\n        /* \"#utility.yul\":2246:2271   */\n      swap1\n      dup2\n      mstore\n        /* \"#utility.yul\":2234:2236   */\n      0x20\n        /* \"#utility.yul\":2219:2237   */\n      add\n        /* \"Campaign.sol\":872:898  uint public approversCount */\n      tag_22\n        /* \"#utility.yul\":2100:2277   */\n      jump\n        /* \"Campaign.sol\":1277:1605  function createRequest(string memory description, uint value,... */\n    tag_7:\n      callvalue\n      dup1\n      iszero\n      tag_40\n      jumpi\n      0x00\n      dup1\n      revert\n    tag_40:\n      pop\n      tag_13\n      tag_42\n      calldatasize\n      0x04\n      tag_43\n      jump\t// in\n    tag_42:\n      tag_44\n      jump\t// in\n        /* \"Campaign.sol\":788:819  uint public minimumContribution */\n    tag_8:\n      callvalue\n      dup1\n      iszero\n      tag_45\n      jumpi\n      0x00\n      dup1\n      revert\n    tag_45:\n      pop\n      tag_36\n      sload(0x03)\n      dup2\n      jump\n        /* \"Campaign.sol\":1112:1271  function contribute() public payable {... */\n    tag_9:\n      tag_13\n      tag_50\n      jump\t// in\n        /* \"Campaign.sol\":1611:1883  function approveRequest(uint index) public {... */\n    tag_10:\n      callvalue\n      dup1\n      iszero\n      tag_51\n      jumpi\n      0x00\n      dup1\n      revert\n    tag_51:\n      pop\n      tag_13\n      tag_53\n      calldatasize\n      0x04\n      tag_15\n      jump\t// in\n    tag_53:\n      tag_54\n      jump\t// in\n        /* \"Campaign.sol\":1889:2197  function finalizeRequest(uint index) public restricted {... */\n    tag_16:\n        /* \"Campaign.sol\":958:965  manager */\n      and(sub(shl(0xa0, 0x01), 0x01), sload(0x02))\n        /* \"Campaign.sol\":944:954  msg.sender */\n      caller\n        /* \"Campaign.sol\":944:965  msg.sender == manager */\n      eq\n        /* \"Campaign.sol\":936:966  require(msg.sender == manager) */\n      tag_56\n      jumpi\n      0x00\n      dup1\n      revert\n    tag_56:\n        /* \"Campaign.sol\":1963:1986  Request storage request */\n      0x00\n        /* \"Campaign.sol\":1989:2004  requests[index] */\n      dup2\n      dup2\n      mstore\n        /* \"Campaign.sol\":1989:1997  requests */\n      0x01\n        /* \"Campaign.sol\":1989:2004  requests[index] */\n      0x20\n      mstore\n      0x40\n      swap1\n      keccak256\n        /* \"Campaign.sol\":2024:2040  request.complete */\n      0x02\n      dup2\n      add\n      sload\n      shl(0xa0, 0x01)\n      swap1\n      div\n      0xff\n      and\n        /* \"Campaign.sol\":2023:2040  !request.complete */\n      iszero\n        /* \"Campaign.sol\":2015:2041  require(!request.complete) */\n      tag_58\n      jumpi\n      0x00\n      dup1\n      revert\n    tag_58:\n        /* \"Campaign.sol\":2101:2102  2 */\n      0x02\n        /* \"Campaign.sol\":2084:2098  approversCount */\n      sload(0x05)\n        /* \"Campaign.sol\":2084:2102  approversCount / 2 */\n      tag_59\n      swap2\n      swap1\n      tag_60\n      jump\t// in\n    tag_59:\n        /* \"Campaign.sol\":2059:2066  request */\n      dup2\n        /* \"Campaign.sol\":2059:2080  request.approvalCount */\n      0x03\n      add\n      sload\n        /* \"Campaign.sol\":2059:2103  request.approvalCount > (approversCount / 2) */\n      gt\n        /* \"Campaign.sol\":2051:2104  require(request.approvalCount > (approversCount / 2)) */\n      tag_61\n      jumpi\n      0x00\n      dup1\n      revert\n    tag_61:\n        /* \"Campaign.sol\":2115:2132  request.recipient */\n      0x02\n      dup2\n      add\n      sload\n      0x01\n        /* \"Campaign.sol\":2142:2155  request.value */\n      dup3\n      add\n      sload\n        /* \"Campaign.sol\":2115:2156  request.recipient.transfer(request.value) */\n      mload(0x40)\n      sub(shl(0xa0, 0x01), 0x01)\n        /* \"Campaign.sol\":2115:2132  request.recipient */\n      swap1\n      swap3\n      and\n      swap2\n        /* \"Campaign.sol\":2115:2156  request.recipient.transfer(request.value) */\n      dup2\n      iszero\n      0x08fc\n      mul\n      swap2\n        /* \"Campaign.sol\":2142:2155  request.value */\n      swap1\n        /* \"Campaign.sol\":2115:2132  request.recipient */\n      0x00\n        /* \"Campaign.sol\":2115:2156  request.recipient.transfer(request.value) */\n      dup2\n        /* \"Campaign.sol\":2115:2132  request.recipient */\n      dup2\n        /* \"Campaign.sol\":2115:2156  request.recipient.transfer(request.value) */\n      dup2\n        /* \"Campaign.sol\":2142:2155  request.value */\n      dup6\n        /* \"Campaign.sol\":2115:2132  request.recipient */\n      dup9\n        /* \"Campaign.sol\":2115:2156  request.recipient.transfer(request.value) */\n      dup9\n      call\n      swap4\n      pop\n      pop\n      pop\n      pop\n      iszero\n      dup1\n      iszero\n      tag_63\n      jumpi\n      returndatasize\n      0x00\n      dup1\n      returndatacopy\n      revert(0x00, returndatasize)\n    tag_63:\n      pop\n        /* \"Campaign.sol\":2166:2182  request.complete */\n      0x02\n      add\n        /* \"Campaign.sol\":2166:2189  request.complete = true */\n      dup1\n      sload\n      not(shl(0xa0, 0xff))\n      and\n      shl(0xa0, 0x01)\n      or\n      swap1\n      sstore\n      pop\n        /* \"Campaign.sol\":1889:2197  function finalizeRequest(uint index) public restricted {... */\n      jump\t// out\n        /* \"Campaign.sol\":708:748  mapping(uint => Request) public requests */\n    tag_32:\n      mstore(0x20, 0x01)\n      0x00\n      swap1\n      dup2\n      mstore\n      0x40\n      swap1\n      keccak256\n      dup1\n      sload\n      dup2\n      swap1\n      tag_64\n      swap1\n      tag_65\n      jump\t// in\n    tag_64:\n      dup1\n      0x1f\n      add\n      0x20\n      dup1\n      swap2\n      div\n      mul\n      0x20\n      add\n      mload(0x40)\n      swap1\n      dup2\n      add\n      0x40\n      mstore\n      dup1\n      swap3\n      swap2\n      swap1\n      dup2\n      dup2\n      mstore\n      0x20\n      add\n      dup3\n      dup1\n      sload\n      tag_66\n      swap1\n      tag_65\n      jump\t// in\n    tag_66:\n      dup1\n      iszero\n      tag_67\n      jumpi\n      dup1\n      0x1f\n      lt\n      tag_68\n      jumpi\n      0x0100\n      dup1\n      dup4\n      sload\n      div\n      mul\n      dup4\n      mstore\n      swap2\n      0x20\n      add\n      swap2\n      jump(tag_67)\n    tag_68:\n      dup3\n      add\n      swap2\n      swap1\n      0x00\n      mstore\n      keccak256(0x00, 0x20)\n      swap1\n    tag_69:\n      dup2\n      sload\n      dup2\n      mstore\n      swap1\n      0x01\n      add\n      swap1\n      0x20\n      add\n      dup1\n      dup4\n      gt\n      tag_69\n      jumpi\n      dup3\n      swap1\n      sub\n      0x1f\n      and\n      dup3\n      add\n      swap2\n    tag_67:\n      pop\n      pop\n      pop\n      pop\n      0x01\n      dup4\n      add\n      sload\n      0x02\n      dup5\n      add\n      sload\n      0x03\n      swap1\n      swap5\n      add\n      sload\n      swap3\n      swap4\n      swap1\n      swap3\n      sub(shl(0xa0, 0x01), 0x01)\n      dup3\n      and\n      swap3\n      pop\n      shl(0xa0, 0x01)\n      swap1\n      swap2\n      div\n      0xff\n      and\n      swap1\n      dup6\n      jump\t// out\n        /* \"Campaign.sol\":1277:1605  function createRequest(string memory description, uint value,... */\n    tag_44:\n        /* \"Campaign.sol\":958:965  manager */\n      and(sub(shl(0xa0, 0x01), 0x01), sload(0x02))\n        /* \"Campaign.sol\":944:954  msg.sender */\n      caller\n        /* \"Campaign.sol\":944:965  msg.sender == manager */\n      eq\n        /* \"Campaign.sol\":936:966  require(msg.sender == manager) */\n      tag_71\n      jumpi\n      0x00\n      dup1\n      revert\n    tag_71:\n        /* \"Campaign.sol\":1403:1420  Request storage r */\n      0x00\n        /* \"Campaign.sol\":1432:1445  numRequests++ */\n      dup1\n      sload\n        /* \"Campaign.sol\":1423:1431  requests */\n      0x01\n      swap1\n        /* \"Campaign.sol\":1403:1420  Request storage r */\n      dup3\n      swap1\n      dup2\n      dup1\n        /* \"Campaign.sol\":1432:1445  numRequests++ */\n      tag_73\n      dup4\n      tag_74\n      jump\t// in\n    tag_73:\n      swap1\n      swap2\n      sstore\n      pop\n        /* \"Campaign.sol\":1423:1446  requests[numRequests++] */\n      dup2\n      mstore\n      0x20\n      dup1\n      dup3\n      add\n      swap3\n      swap1\n      swap3\n      mstore\n      0x40\n      add\n      0x00\n      keccak256\n        /* \"Campaign.sol\":1456:1483  r.description = description */\n      dup6\n      mload\n        /* \"Campaign.sol\":1423:1446  requests[numRequests++] */\n      swap1\n      swap3\n      pop\n        /* \"Campaign.sol\":1456:1483  r.description = description */\n      tag_75\n      swap2\n        /* \"Campaign.sol\":1423:1446  requests[numRequests++] */\n      dup4\n      swap2\n        /* \"Campaign.sol\":1456:1483  r.description = description */\n      swap1\n      dup8\n      add\n      swap1\n      tag_76\n      jump\t// in\n    tag_75:\n      pop\n        /* \"Campaign.sol\":1493:1500  r.value */\n      0x01\n      dup2\n      add\n        /* \"Campaign.sol\":1493:1508  r.value = value */\n      swap3\n      swap1\n      swap3\n      sstore\n        /* \"Campaign.sol\":1518:1529  r.recipient */\n      0x02\n      dup3\n      add\n        /* \"Campaign.sol\":1518:1541  r.recipient = recipient */\n      dup1\n      sload\n      not(sub(shl(0xa8, 0x01), 0x01))\n        /* \"Campaign.sol\":1551:1569  r.complete = false */\n      and\n      sub(shl(0xa0, 0x01), 0x01)\n        /* \"Campaign.sol\":1518:1541  r.recipient = recipient */\n      swap1\n      swap3\n      and\n        /* \"Campaign.sol\":1551:1569  r.complete = false */\n      swap2\n      swap1\n      swap2\n      or\n      swap1\n      sstore\n        /* \"Campaign.sol\":1518:1529  r.recipient */\n      0x00\n        /* \"Campaign.sol\":1579:1594  r.approvalCount */\n      0x03\n      swap1\n      swap2\n      add\n        /* \"Campaign.sol\":1579:1598  r.approvalCount = 0 */\n      sstore\n      pop\n        /* \"Campaign.sol\":1277:1605  function createRequest(string memory description, uint value,... */\n      jump\t// out\n        /* \"Campaign.sol\":1112:1271  function contribute() public payable {... */\n    tag_50:\n        /* \"Campaign.sol\":1179:1198  minimumContribution */\n      sload(0x03)\n        /* \"Campaign.sol\":1167:1176  msg.value */\n      callvalue\n        /* \"Campaign.sol\":1167:1198  msg.value > minimumContribution */\n      gt\n        /* \"Campaign.sol\":1159:1199  require(msg.value > minimumContribution) */\n      tag_78\n      jumpi\n      0x00\n      dup1\n      revert\n    tag_78:\n        /* \"Campaign.sol\":1220:1230  msg.sender */\n      caller\n        /* \"Campaign.sol\":1210:1231  approvers[msg.sender] */\n      0x00\n      swap1\n      dup2\n      mstore\n        /* \"Campaign.sol\":1210:1219  approvers */\n      0x04\n        /* \"Campaign.sol\":1210:1231  approvers[msg.sender] */\n      0x20\n      mstore\n      0x40\n      dup2\n      keccak256\n        /* \"Campaign.sol\":1210:1238  approvers[msg.sender] = true */\n      dup1\n      sload\n      not(0xff)\n      and\n        /* \"Campaign.sol\":1234:1238  true */\n      0x01\n        /* \"Campaign.sol\":1210:1238  approvers[msg.sender] = true */\n      or\n      swap1\n      sstore\n        /* \"Campaign.sol\":1248:1262  approversCount */\n      0x05\n        /* \"Campaign.sol\":1248:1264  approversCount++ */\n      dup1\n      sload\n      swap2\n      tag_79\n      dup4\n      tag_74\n      jump\t// in\n    tag_79:\n      swap2\n      swap1\n      pop\n      sstore\n      pop\n        /* \"Campaign.sol\":1112:1271  function contribute() public payable {... */\n      jump\t// out\n        /* \"Campaign.sol\":1611:1883  function approveRequest(uint index) public {... */\n    tag_54:\n        /* \"Campaign.sol\":1665:1688  Request storage request */\n      0x00\n        /* \"Campaign.sol\":1691:1706  requests[index] */\n      dup2\n      dup2\n      mstore\n        /* \"Campaign.sol\":1691:1699  requests */\n      0x01\n        /* \"Campaign.sol\":1691:1706  requests[index] */\n      0x20\n      swap1\n      dup2\n      mstore\n      0x40\n      dup1\n      dup4\n      keccak256\n        /* \"Campaign.sol\":1735:1745  msg.sender */\n      caller\n        /* \"Campaign.sol\":1725:1746  approvers[msg.sender] */\n      dup5\n      mstore\n        /* \"Campaign.sol\":1725:1734  approvers */\n      0x04\n        /* \"Campaign.sol\":1725:1746  approvers[msg.sender] */\n      swap1\n      swap3\n      mstore\n      swap1\n      swap2\n      keccak256\n      sload\n      0xff\n      and\n        /* \"Campaign.sol\":1717:1747  require(approvers[msg.sender]) */\n      tag_81\n      jumpi\n      0x00\n      dup1\n      revert\n    tag_81:\n        /* \"Campaign.sol\":1784:1794  msg.sender */\n      caller\n        /* \"Campaign.sol\":1766:1795  request.approvals[msg.sender] */\n      0x00\n      swap1\n      dup2\n      mstore\n        /* \"Campaign.sol\":1766:1783  request.approvals */\n      0x04\n      dup3\n      add\n        /* \"Campaign.sol\":1766:1795  request.approvals[msg.sender] */\n      0x20\n      mstore\n      0x40\n      swap1\n      keccak256\n      sload\n      0xff\n      and\n        /* \"Campaign.sol\":1765:1795  !request.approvals[msg.sender] */\n      iszero\n        /* \"Campaign.sol\":1757:1796  require(!request.approvals[msg.sender]) */\n      tag_82\n      jumpi\n      0x00\n      dup1\n      revert\n    tag_82:\n        /* \"Campaign.sol\":1825:1835  msg.sender */\n      caller\n        /* \"Campaign.sol\":1807:1836  request.approvals[msg.sender] */\n      0x00\n      swap1\n      dup2\n      mstore\n        /* \"Campaign.sol\":1807:1824  request.approvals */\n      0x04\n      dup3\n      add\n        /* \"Campaign.sol\":1807:1836  request.approvals[msg.sender] */\n      0x20\n      mstore\n      0x40\n      dup2\n      keccak256\n        /* \"Campaign.sol\":1807:1843  request.approvals[msg.sender] = true */\n      dup1\n      sload\n      not(0xff)\n      and\n        /* \"Campaign.sol\":1839:1843  true */\n      0x01\n        /* \"Campaign.sol\":1807:1843  request.approvals[msg.sender] = true */\n      or\n      swap1\n      sstore\n        /* \"Campaign.sol\":1853:1874  request.approvalCount */\n      0x03\n      dup3\n      add\n        /* \"Campaign.sol\":1853:1876  request.approvalCount++ */\n      dup1\n      sload\n      swap2\n      tag_83\n      dup4\n      tag_74\n      jump\t// in\n    tag_83:\n      swap2\n      swap1\n      pop\n      sstore\n      pop\n        /* \"Campaign.sol\":1654:1883  {... */\n      pop\n        /* \"Campaign.sol\":1611:1883  function approveRequest(uint index) public {... */\n      pop\n      jump\t// out\n    tag_76:\n      dup3\n      dup1\n      sload\n      tag_84\n      swap1\n      tag_65\n      jump\t// in\n    tag_84:\n      swap1\n      0x00\n      mstore\n      keccak256(0x00, 0x20)\n      swap1\n      0x1f\n      add\n      0x20\n      swap1\n      div\n      dup2\n      add\n      swap3\n      dup3\n      tag_86\n      jumpi\n      0x00\n      dup6\n      sstore\n      jump(tag_89)\n    tag_86:\n      dup3\n      0x1f\n      lt\n      tag_87\n      jumpi\n      dup1\n      mload\n      not(0xff)\n      and\n      dup4\n      dup1\n      add\n      or\n      dup6\n      sstore\n      jump(tag_89)\n    tag_87:\n      dup3\n      dup1\n      add\n      0x01\n      add\n      dup6\n      sstore\n      dup3\n      iszero\n      tag_89\n      jumpi\n      swap2\n      dup3\n      add\n    tag_88:\n      dup3\n      dup2\n      gt\n      iszero\n      tag_89\n      jumpi\n      dup3\n      mload\n      dup3\n      sstore\n      swap2\n      0x20\n      add\n      swap2\n      swap1\n      0x01\n      add\n      swap1\n      jump(tag_88)\n    tag_89:\n      pop\n      tag_90\n      swap3\n      swap2\n      pop\n      tag_91\n      jump\t// in\n    tag_90:\n      pop\n      swap1\n      jump\t// out\n    tag_91:\n    tag_92:\n      dup1\n      dup3\n      gt\n      iszero\n      tag_90\n      jumpi\n      0x00\n      dup2\n      sstore\n      0x01\n      add\n      jump(tag_92)\n        /* \"#utility.yul\":14:194   */\n    tag_15:\n        /* \"#utility.yul\":73:79   */\n      0x00\n        /* \"#utility.yul\":126:128   */\n      0x20\n        /* \"#utility.yul\":114:123   */\n      dup3\n        /* \"#utility.yul\":105:112   */\n      dup5\n        /* \"#utility.yul\":101:124   */\n      sub\n        /* \"#utility.yul\":97:129   */\n      slt\n        /* \"#utility.yul\":94:146   */\n      iszero\n      tag_101\n      jumpi\n        /* \"#utility.yul\":142:143   */\n      0x00\n        /* \"#utility.yul\":139:140   */\n      dup1\n        /* \"#utility.yul\":132:144   */\n      revert\n        /* \"#utility.yul\":94:146   */\n    tag_101:\n      pop\n        /* \"#utility.yul\":165:188   */\n      calldataload\n      swap2\n        /* \"#utility.yul\":14:194   */\n      swap1\n      pop\n      jump\t// out\n        /* \"#utility.yul\":199:330   */\n    tag_94:\n      sub(shl(0xa0, 0x01), 0x01)\n        /* \"#utility.yul\":274:305   */\n      dup2\n      and\n        /* \"#utility.yul\":264:306   */\n      dup2\n      eq\n        /* \"#utility.yul\":254:324   */\n      tag_103\n      jumpi\n        /* \"#utility.yul\":320:321   */\n      0x00\n        /* \"#utility.yul\":317:318   */\n      dup1\n        /* \"#utility.yul\":310:322   */\n      revert\n        /* \"#utility.yul\":254:324   */\n    tag_103:\n        /* \"#utility.yul\":199:330   */\n      pop\n      jump\t// out\n        /* \"#utility.yul\":335:582   */\n    tag_20:\n        /* \"#utility.yul\":394:400   */\n      0x00\n        /* \"#utility.yul\":447:449   */\n      0x20\n        /* \"#utility.yul\":435:444   */\n      dup3\n        /* \"#utility.yul\":426:433   */\n      dup5\n        /* \"#utility.yul\":422:445   */\n      sub\n        /* \"#utility.yul\":418:450   */\n      slt\n        /* \"#utility.yul\":415:467   */\n      iszero\n      tag_105\n      jumpi\n        /* \"#utility.yul\":463:464   */\n      0x00\n        /* \"#utility.yul\":460:461   */\n      dup1\n        /* \"#utility.yul\":453:465   */\n      revert\n        /* \"#utility.yul\":415:467   */\n    tag_105:\n        /* \"#utility.yul\":502:511   */\n      dup2\n        /* \"#utility.yul\":489:512   */\n      calldataload\n        /* \"#utility.yul\":521:552   */\n      tag_106\n        /* \"#utility.yul\":546:551   */\n      dup2\n        /* \"#utility.yul\":521:552   */\n      tag_94\n      jump\t// in\n    tag_106:\n        /* \"#utility.yul\":571:576   */\n      swap4\n        /* \"#utility.yul\":335:582   */\n      swap3\n      pop\n      pop\n      pop\n      jump\t// out\n        /* \"#utility.yul\":1192:2095   */\n    tag_34:\n        /* \"#utility.yul\":1463:1466   */\n      0xa0\n        /* \"#utility.yul\":1452:1461   */\n      dup2\n        /* \"#utility.yul\":1445:1467   */\n      mstore\n        /* \"#utility.yul\":1426:1430   */\n      0x00\n        /* \"#utility.yul\":1496:1502   */\n      dup7\n        /* \"#utility.yul\":1490:1503   */\n      mload\n        /* \"#utility.yul\":1540:1546   */\n      dup1\n        /* \"#utility.yul\":1534:1537   */\n      0xa0\n        /* \"#utility.yul\":1523:1532   */\n      dup5\n        /* \"#utility.yul\":1519:1538   */\n      add\n        /* \"#utility.yul\":1512:1547   */\n      mstore\n        /* \"#utility.yul\":1565:1566   */\n      0x00\n        /* \"#utility.yul\":1575:1720   */\n    tag_112:\n        /* \"#utility.yul\":1589:1595   */\n      dup2\n        /* \"#utility.yul\":1586:1587   */\n      dup2\n        /* \"#utility.yul\":1583:1596   */\n      lt\n        /* \"#utility.yul\":1575:1720   */\n      iszero\n      tag_114\n      jumpi\n        /* \"#utility.yul\":1703:1707   */\n      0x20\n        /* \"#utility.yul\":1687:1701   */\n      dup2\n      dup11\n      add\n        /* \"#utility.yul\":1683:1708   */\n      dup2\n      add\n        /* \"#utility.yul\":1677:1709   */\n      mload\n        /* \"#utility.yul\":1671:1674   */\n      0xc0\n        /* \"#utility.yul\":1652:1669   */\n      dup7\n      dup5\n      add\n        /* \"#utility.yul\":1648:1675   */\n      add\n        /* \"#utility.yul\":1641:1710   */\n      mstore\n        /* \"#utility.yul\":1604:1616   */\n      add\n        /* \"#utility.yul\":1575:1720   */\n      jump(tag_112)\n    tag_114:\n        /* \"#utility.yul\":1738:1744   */\n      dup2\n        /* \"#utility.yul\":1735:1736   */\n      dup2\n        /* \"#utility.yul\":1732:1745   */\n      gt\n        /* \"#utility.yul\":1729:1821   */\n      iszero\n      tag_115\n      jumpi\n        /* \"#utility.yul\":1809:1810   */\n      0x00\n        /* \"#utility.yul\":1803:1806   */\n      0xc0\n        /* \"#utility.yul\":1794:1800   */\n      dup4\n        /* \"#utility.yul\":1783:1792   */\n      dup7\n        /* \"#utility.yul\":1779:1801   */\n      add\n        /* \"#utility.yul\":1775:1807   */\n      add\n        /* \"#utility.yul\":1768:1811   */\n      mstore\n        /* \"#utility.yul\":1729:1821   */\n    tag_115:\n      pop\n        /* \"#utility.yul\":1924:1928   */\n      0x20\n        /* \"#utility.yul\":1909:1929   */\n      dup4\n      add\n        /* \"#utility.yul\":1902:1938   */\n      dup8\n      swap1\n      mstore\n        /* \"#utility.yul\":1882:1884   */\n      0x1f\n        /* \"#utility.yul\":1861:1876   */\n      add\n      not(0x1f)\n        /* \"#utility.yul\":1857:1886   */\n      and\n        /* \"#utility.yul\":1842:1887   */\n      dup3\n      add\n        /* \"#utility.yul\":1889:1892   */\n      0xc0\n        /* \"#utility.yul\":1838:1893   */\n      add\n      swap1\n      pop\n        /* \"#utility.yul\":1947:1993   */\n      tag_116\n        /* \"#utility.yul\":1989:1991   */\n      0x40\n        /* \"#utility.yul\":1974:1992   */\n      dup4\n      add\n        /* \"#utility.yul\":1966:1972   */\n      dup7\n      sub(shl(0xa0, 0x01), 0x01)\n        /* \"#utility.yul\":941:972   */\n      and\n        /* \"#utility.yul\":929:973   */\n      swap1\n      mstore\n        /* \"#utility.yul\":875:979   */\n      jump\n        /* \"#utility.yul\":1947:1993   */\n    tag_116:\n        /* \"#utility.yul\":657:670   */\n      swap3\n      iszero\n        /* \"#utility.yul\":650:671   */\n      iszero\n        /* \"#utility.yul\":2041:2043   */\n      0x60\n        /* \"#utility.yul\":2026:2044   */\n      dup3\n      add\n        /* \"#utility.yul\":638:672   */\n      mstore\n        /* \"#utility.yul\":2076:2079   */\n      0x80\n        /* \"#utility.yul\":2061:2080   */\n      add\n        /* \"#utility.yul\":2054:2089   */\n      mstore\n        /* \"#utility.yul\":1192:2095   */\n      swap4\n      swap3\n      pop\n      pop\n      pop\n      jump\t// out\n        /* \"#utility.yul\":2282:2409   */\n    tag_97:\n        /* \"#utility.yul\":2343:2353   */\n      0x4e487b71\n        /* \"#utility.yul\":2338:2341   */\n      0xe0\n        /* \"#utility.yul\":2334:2354   */\n      shl\n        /* \"#utility.yul\":2331:2332   */\n      0x00\n        /* \"#utility.yul\":2324:2355   */\n      mstore\n        /* \"#utility.yul\":2374:2378   */\n      0x41\n        /* \"#utility.yul\":2371:2372   */\n      0x04\n        /* \"#utility.yul\":2364:2379   */\n      mstore\n        /* \"#utility.yul\":2398:2402   */\n      0x24\n        /* \"#utility.yul\":2395:2396   */\n      0x00\n        /* \"#utility.yul\":2388:2403   */\n      revert\n        /* \"#utility.yul\":2414:2556   */\n    tag_98:\n        /* \"#utility.yul\":2490:2510   */\n      dup1\n      calldataload\n        /* \"#utility.yul\":2519:2550   */\n      tag_121\n        /* \"#utility.yul\":2490:2510   */\n      dup2\n        /* \"#utility.yul\":2519:2550   */\n      tag_94\n      jump\t// in\n    tag_121:\n        /* \"#utility.yul\":2414:2556   */\n      swap2\n      swap1\n      pop\n      jump\t// out\n        /* \"#utility.yul\":2561:3651   */\n    tag_43:\n        /* \"#utility.yul\":2656:2662   */\n      0x00\n        /* \"#utility.yul\":2664:2670   */\n      dup1\n        /* \"#utility.yul\":2672:2678   */\n      0x00\n        /* \"#utility.yul\":2725:2727   */\n      0x60\n        /* \"#utility.yul\":2713:2722   */\n      dup5\n        /* \"#utility.yul\":2704:2711   */\n      dup7\n        /* \"#utility.yul\":2700:2723   */\n      sub\n        /* \"#utility.yul\":2696:2728   */\n      slt\n        /* \"#utility.yul\":2693:2745   */\n      iszero\n      tag_123\n      jumpi\n        /* \"#utility.yul\":2741:2742   */\n      0x00\n        /* \"#utility.yul\":2738:2739   */\n      dup1\n        /* \"#utility.yul\":2731:2743   */\n      revert\n        /* \"#utility.yul\":2693:2745   */\n    tag_123:\n        /* \"#utility.yul\":2781:2790   */\n      dup4\n        /* \"#utility.yul\":2768:2791   */\n      calldataload\n        /* \"#utility.yul\":2810:2828   */\n      0xffffffffffffffff\n        /* \"#utility.yul\":2851:2853   */\n      dup1\n        /* \"#utility.yul\":2843:2849   */\n      dup3\n        /* \"#utility.yul\":2840:2854   */\n      gt\n        /* \"#utility.yul\":2837:2871   */\n      iszero\n      tag_124\n      jumpi\n        /* \"#utility.yul\":2867:2868   */\n      0x00\n        /* \"#utility.yul\":2864:2865   */\n      dup1\n        /* \"#utility.yul\":2857:2869   */\n      revert\n        /* \"#utility.yul\":2837:2871   */\n    tag_124:\n        /* \"#utility.yul\":2905:2911   */\n      dup2\n        /* \"#utility.yul\":2894:2903   */\n      dup7\n        /* \"#utility.yul\":2890:2912   */\n      add\n        /* \"#utility.yul\":2880:2912   */\n      swap2\n      pop\n        /* \"#utility.yul\":2950:2957   */\n      dup7\n        /* \"#utility.yul\":2943:2947   */\n      0x1f\n        /* \"#utility.yul\":2939:2941   */\n      dup4\n        /* \"#utility.yul\":2935:2948   */\n      add\n        /* \"#utility.yul\":2931:2958   */\n      slt\n        /* \"#utility.yul\":2921:2976   */\n      tag_125\n      jumpi\n        /* \"#utility.yul\":2972:2973   */\n      0x00\n        /* \"#utility.yul\":2969:2970   */\n      dup1\n        /* \"#utility.yul\":2962:2974   */\n      revert\n        /* \"#utility.yul\":2921:2976   */\n    tag_125:\n        /* \"#utility.yul\":3008:3010   */\n      dup2\n        /* \"#utility.yul\":2995:3011   */\n      calldataload\n        /* \"#utility.yul\":3030:3032   */\n      dup2\n        /* \"#utility.yul\":3026:3028   */\n      dup2\n        /* \"#utility.yul\":3023:3033   */\n      gt\n        /* \"#utility.yul\":3020:3056   */\n      iszero\n      tag_127\n      jumpi\n        /* \"#utility.yul\":3036:3054   */\n      tag_127\n      tag_97\n      jump\t// in\n    tag_127:\n        /* \"#utility.yul\":3111:3113   */\n      0x40\n        /* \"#utility.yul\":3105:3114   */\n      mload\n        /* \"#utility.yul\":3079:3081   */\n      0x1f\n        /* \"#utility.yul\":3165:3178   */\n      dup3\n      add\n      not(0x1f)\n        /* \"#utility.yul\":3161:3183   */\n      swap1\n      dup2\n      and\n        /* \"#utility.yul\":3185:3187   */\n      0x3f\n        /* \"#utility.yul\":3157:3188   */\n      add\n        /* \"#utility.yul\":3153:3193   */\n      and\n        /* \"#utility.yul\":3141:3194   */\n      dup2\n      add\n      swap1\n        /* \"#utility.yul\":3209:3227   */\n      dup4\n      dup3\n      gt\n        /* \"#utility.yul\":3229:3251   */\n      dup2\n      dup4\n      lt\n        /* \"#utility.yul\":3206:3252   */\n      or\n        /* \"#utility.yul\":3203:3275   */\n      iszero\n      tag_129\n      jumpi\n        /* \"#utility.yul\":3255:3273   */\n      tag_129\n      tag_97\n      jump\t// in\n    tag_129:\n        /* \"#utility.yul\":3295:3305   */\n      dup2\n        /* \"#utility.yul\":3291:3293   */\n      0x40\n        /* \"#utility.yul\":3284:3306   */\n      mstore\n        /* \"#utility.yul\":3330:3332   */\n      dup3\n        /* \"#utility.yul\":3322:3328   */\n      dup2\n        /* \"#utility.yul\":3315:3333   */\n      mstore\n        /* \"#utility.yul\":3372:3379   */\n      dup10\n        /* \"#utility.yul\":3365:3369   */\n      0x20\n        /* \"#utility.yul\":3360:3362   */\n      dup5\n        /* \"#utility.yul\":3356:3358   */\n      dup8\n        /* \"#utility.yul\":3352:3363   */\n      add\n        /* \"#utility.yul\":3348:3370   */\n      add\n        /* \"#utility.yul\":3345:3380   */\n      gt\n        /* \"#utility.yul\":3342:3397   */\n      iszero\n      tag_130\n      jumpi\n        /* \"#utility.yul\":3393:3394   */\n      0x00\n        /* \"#utility.yul\":3390:3391   */\n      dup1\n        /* \"#utility.yul\":3383:3395   */\n      revert\n        /* \"#utility.yul\":3342:3397   */\n    tag_130:\n        /* \"#utility.yul\":3453:3455   */\n      dup3\n        /* \"#utility.yul\":3446:3450   */\n      0x20\n        /* \"#utility.yul\":3442:3444   */\n      dup7\n        /* \"#utility.yul\":3438:3451   */\n      add\n        /* \"#utility.yul\":3431:3435   */\n      0x20\n        /* \"#utility.yul\":3423:3429   */\n      dup4\n        /* \"#utility.yul\":3419:3436   */\n      add\n        /* \"#utility.yul\":3406:3456   */\n      calldatacopy\n        /* \"#utility.yul\":3500:3501   */\n      0x00\n        /* \"#utility.yul\":3493:3497   */\n      0x20\n        /* \"#utility.yul\":3488:3490   */\n      dup5\n        /* \"#utility.yul\":3480:3486   */\n      dup4\n        /* \"#utility.yul\":3476:3491   */\n      add\n        /* \"#utility.yul\":3472:3498   */\n      add\n        /* \"#utility.yul\":3465:3502   */\n      mstore\n        /* \"#utility.yul\":3521:3527   */\n      dup1\n        /* \"#utility.yul\":3511:3527   */\n      swap8\n      pop\n      pop\n      pop\n      pop\n      pop\n      pop\n        /* \"#utility.yul\":3574:3578   */\n      0x20\n        /* \"#utility.yul\":3563:3572   */\n      dup5\n        /* \"#utility.yul\":3559:3579   */\n      add\n        /* \"#utility.yul\":3546:3580   */\n      calldataload\n        /* \"#utility.yul\":3536:3580   */\n      swap2\n      pop\n        /* \"#utility.yul\":3599:3645   */\n      tag_131\n        /* \"#utility.yul\":3641:3643   */\n      0x40\n        /* \"#utility.yul\":3630:3639   */\n      dup6\n        /* \"#utility.yul\":3626:3644   */\n      add\n        /* \"#utility.yul\":3599:3645   */\n      tag_98\n      jump\t// in\n    tag_131:\n        /* \"#utility.yul\":3589:3645   */\n      swap1\n      pop\n        /* \"#utility.yul\":2561:3651   */\n      swap3\n      pop\n      swap3\n      pop\n      swap3\n      jump\t// out\n        /* \"#utility.yul\":3656:3873   */\n    tag_60:\n        /* \"#utility.yul\":3696:3697   */\n      0x00\n        /* \"#utility.yul\":3722:3723   */\n      dup3\n        /* \"#utility.yul\":3712:3844   */\n      tag_133\n      jumpi\n        /* \"#utility.yul\":3766:3776   */\n      0x4e487b71\n        /* \"#utility.yul\":3761:3764   */\n      0xe0\n        /* \"#utility.yul\":3757:3777   */\n      shl\n        /* \"#utility.yul\":3754:3755   */\n      0x00\n        /* \"#utility.yul\":3747:3778   */\n      mstore\n        /* \"#utility.yul\":3801:3805   */\n      0x12\n        /* \"#utility.yul\":3798:3799   */\n      0x04\n        /* \"#utility.yul\":3791:3806   */\n      mstore\n        /* \"#utility.yul\":3829:3833   */\n      0x24\n        /* \"#utility.yul\":3826:3827   */\n      0x00\n        /* \"#utility.yul\":3819:3834   */\n      revert\n        /* \"#utility.yul\":3712:3844   */\n    tag_133:\n      pop\n        /* \"#utility.yul\":3858:3867   */\n      div\n      swap1\n        /* \"#utility.yul\":3656:3873   */\n      jump\t// out\n        /* \"#utility.yul\":3878:4258   */\n    tag_65:\n        /* \"#utility.yul\":3957:3958   */\n      0x01\n        /* \"#utility.yul\":3953:3965   */\n      dup2\n      dup2\n      shr\n      swap1\n        /* \"#utility.yul\":4000:4012   */\n      dup3\n      and\n      dup1\n        /* \"#utility.yul\":4021:4082   */\n      tag_135\n      jumpi\n        /* \"#utility.yul\":4075:4079   */\n      0x7f\n        /* \"#utility.yul\":4067:4073   */\n      dup3\n        /* \"#utility.yul\":4063:4080   */\n      and\n        /* \"#utility.yul\":4053:4080   */\n      swap2\n      pop\n        /* \"#utility.yul\":4021:4082   */\n    tag_135:\n        /* \"#utility.yul\":4128:4130   */\n      0x20\n        /* \"#utility.yul\":4120:4126   */\n      dup3\n        /* \"#utility.yul\":4117:4131   */\n      lt\n        /* \"#utility.yul\":4097:4115   */\n      dup2\n        /* \"#utility.yul\":4094:4132   */\n      sub\n        /* \"#utility.yul\":4091:4252   */\n      tag_136\n      jumpi\n        /* \"#utility.yul\":4174:4184   */\n      0x4e487b71\n        /* \"#utility.yul\":4169:4172   */\n      0xe0\n        /* \"#utility.yul\":4165:4185   */\n      shl\n        /* \"#utility.yul\":4162:4163   */\n      0x00\n        /* \"#utility.yul\":4155:4186   */\n      mstore\n        /* \"#utility.yul\":4209:4213   */\n      0x22\n        /* \"#utility.yul\":4206:4207   */\n      0x04\n        /* \"#utility.yul\":4199:4214   */\n      mstore\n        /* \"#utility.yul\":4237:4241   */\n      0x24\n        /* \"#utility.yul\":4234:4235   */\n      0x00\n        /* \"#utility.yul\":4227:4242   */\n      revert\n        /* \"#utility.yul\":4091:4252   */\n    tag_136:\n      pop\n        /* \"#utility.yul\":3878:4258   */\n      swap2\n      swap1\n      pop\n      jump\t// out\n        /* \"#utility.yul\":4263:4495   */\n    tag_74:\n        /* \"#utility.yul\":4302:4305   */\n      0x00\n        /* \"#utility.yul\":4323:4340   */\n      0x01\n      dup3\n      add\n        /* \"#utility.yul\":4320:4460   */\n      tag_138\n      jumpi\n        /* \"#utility.yul\":4382:4392   */\n      0x4e487b71\n        /* \"#utility.yul\":4377:4380   */\n      0xe0\n        /* \"#utility.yul\":4373:4393   */\n      shl\n        /* \"#utility.yul\":4370:4371   */\n      0x00\n        /* \"#utility.yul\":4363:4394   */\n      mstore\n        /* \"#utility.yul\":4417:4421   */\n      0x11\n        /* \"#utility.yul\":4414:4415   */\n      0x04\n        /* \"#utility.yul\":4407:4422   */\n      mstore\n        /* \"#utility.yul\":4445:4449   */\n      0x24\n        /* \"#utility.yul\":4442:4443   */\n      0x00\n        /* \"#utility.yul\":4435:4450   */\n      revert\n        /* \"#utility.yul\":4320:4460   */\n    tag_138:\n      pop\n        /* \"#utility.yul\":4487:4488   */\n      0x01\n        /* \"#utility.yul\":4476:4489   */\n      add\n      swap1\n        /* \"#utility.yul\":4263:4495   */\n      jump\t// out\n\n    auxdata: 0xa2646970667358221220820e3096007f4015a0ed1891c24b7ba59507fab083c978329c37f385cad6b24264736f6c634300080d0033\n}\n","bytecode":{"linkReferences":{},"object":"608060405234801561001057600080fd5b5060405161085438038061085483398101604081905261002f91610057565b600280546001600160a01b0319166001600160a01b0392909216919091179055600355610094565b6000806040838503121561006a57600080fd5b825160208401519092506001600160a01b038116811461008957600080fd5b809150509250929050565b6107b1806100a36000396000f3fe6080604052600436106100865760003560e01c806382fde0931161005957806382fde0931461015b5780638a9cfd551461017f578063937e09b11461019f578063d7bb99ba146101b5578063d7d1bbdb146101bd57600080fd5b8063034410061461008b5780630a144391146100ad578063481c6a75146100f257806381d12c581461012a575b600080fd5b34801561009757600080fd5b506100ab6100a6366004610534565b6101dd565b005b3480156100b957600080fd5b506100dd6100c8366004610565565b60046020526000908152604090205460ff1681565b60405190151581526020015b60405180910390f35b3480156100fe57600080fd5b50600254610112906001600160a01b031681565b6040516001600160a01b0390911681526020016100e9565b34801561013657600080fd5b5061014a610145366004610534565b610291565b6040516100e9959493929190610589565b34801561016757600080fd5b5061017160055481565b6040519081526020016100e9565b34801561018b57600080fd5b506100ab61019a36600461062d565b610358565b3480156101ab57600080fd5b5061017160035481565b6100ab6103e1565b3480156101c957600080fd5b506100ab6101d8366004610534565b61041e565b6002546001600160a01b031633146101f457600080fd5b60008181526001602052604090206002810154600160a01b900460ff161561021b57600080fd5b600260055461022a91906106f8565b81600301541161023957600080fd5b600281015460018201546040516001600160a01b039092169181156108fc0291906000818181858888f19350505050158015610279573d6000803e3d6000fd5b50600201805460ff60a01b1916600160a01b17905550565b6001602052600090815260409020805481906102ac9061071a565b80601f01602080910402602001604051908101604052809291908181526020018280546102d89061071a565b80156103255780601f106102fa57610100808354040283529160200191610325565b820191906000526020600020905b81548152906001019060200180831161030857829003601f168201915b5050505060018301546002840154600390940154929390926001600160a01b0382169250600160a01b90910460ff169085565b6002546001600160a01b0316331461036f57600080fd5b600080546001908290818061038383610754565b90915550815260208082019290925260400160002085519092506103ac9183919087019061049b565b5060018101929092556002820180546001600160a81b0319166001600160a01b03909216919091179055600060039091015550565b60035434116103ef57600080fd5b336000908152600460205260408120805460ff19166001179055600580549161041783610754565b9190505550565b600081815260016020908152604080832033845260049092529091205460ff1661044757600080fd5b33600090815260048201602052604090205460ff161561046657600080fd5b3360009081526004820160205260408120805460ff191660011790556003820180549161049283610754565b91905055505050565b8280546104a79061071a565b90600052602060002090601f0160209004810192826104c9576000855561050f565b82601f106104e257805160ff191683800117855561050f565b8280016001018555821561050f579182015b8281111561050f5782518255916020019190600101906104f4565b5061051b92915061051f565b5090565b5b8082111561051b5760008155600101610520565b60006020828403121561054657600080fd5b5035919050565b6001600160a01b038116811461056257600080fd5b50565b60006020828403121561057757600080fd5b81356105828161054d565b9392505050565b60a08152600086518060a084015260005b818110156105b7576020818a0181015160c086840101520161059a565b818111156105c957600060c083860101525b5060208301879052601f01601f1916820160c00190506105f460408301866001600160a01b03169052565b9215156060820152608001529392505050565b634e487b7160e01b600052604160045260246000fd5b80356106288161054d565b919050565b60008060006060848603121561064257600080fd5b833567ffffffffffffffff8082111561065a57600080fd5b818601915086601f83011261066e57600080fd5b81358181111561068057610680610607565b604051601f8201601f19908116603f011681019083821181831017156106a8576106a8610607565b816040528281528960208487010111156106c157600080fd5b826020860160208301376000602084830101528097505050505050602084013591506106ef6040850161061d565b90509250925092565b60008261071557634e487b7160e01b600052601260045260246000fd5b500490565b600181811c9082168061072e57607f821691505b60208210810361074e57634e487b7160e01b600052602260045260246000fd5b50919050565b60006001820161077457634e487b7160e01b600052601160045260246000fd5b506001019056fea2646970667358221220820e3096007f4015a0ed1891c24b7ba59507fab083c978329c37f385cad6b24264736f6c634300080d0033","opcodes":"PUSH1 0x80 PUSH1 0x40 MSTORE CALLVALUE DUP1 ISZERO PUSH2 0x10 JUMPI PUSH1 0x0 DUP1 REVERT JUMPDEST POP PUSH1 0x40 MLOAD PUSH2 0x854 CODESIZE SUB DUP1 PUSH2 0x854 DUP4 CODECOPY DUP2 ADD PUSH1 0x40 DUP2 SWAP1 MSTORE PUSH2 0x2F SWAP2 PUSH2 0x57 JUMP JUMPDEST PUSH1 0x2 DUP1 SLOAD PUSH1 0x1 PUSH1 0x1 PUSH1 0xA0 SHL SUB NOT AND PUSH1 0x1 PUSH1 0x1 PUSH1 0xA0 SHL SUB SWAP3 SWAP1 SWAP3 AND SWAP2 SWAP1 SWAP2 OR SWAP1 SSTORE PUSH1 0x3 SSTORE PUSH2 0x94 JUMP JUMPDEST PUSH1 0x0 DUP1 PUSH1 0x40 DUP4 DUP6 SUB SLT ISZERO PUSH2 0x6A JUMPI PUSH1 0x0 DUP1 REVERT JUMPDEST DUP3 MLOAD PUSH1 0x20 DUP5 ADD MLOAD SWAP1 SWAP3 POP PUSH1 0x1 PUSH1 0x1 PUSH1 0xA0 SHL SUB DUP2 AND DUP2 EQ PUSH2 0x89 JUMPI PUSH1 0x0 DUP1 REVERT JUMPDEST DUP1 SWAP2 POP POP SWAP3 POP SWAP3 SWAP1 POP JUMP JUMPDEST PUSH2 0x7B1 DUP1 PUSH2 0xA3 PUSH1 0x0 CODECOPY PUSH1 0x0 RETURN INVALID PUSH1 0x80 PUSH1 0x40 MSTORE PUSH1 0x4 CALLDATASIZE LT PUSH2 0x86 JUMPI PUSH1 0x0 CALLDATALOAD PUSH1 0xE0 SHR DUP1 PUSH4 0x82FDE093 GT PUSH2 0x59 JUMPI DUP1 PUSH4 0x82FDE093 EQ PUSH2 0x15B JUMPI DUP1 PUSH4 0x8A9CFD55 EQ PUSH2 0x17F JUMPI DUP1 PUSH4 0x937E09B1 EQ PUSH2 0x19F JUMPI DUP1 PUSH4 0xD7BB99BA EQ PUSH2 0x1B5 JUMPI DUP1 PUSH4 0xD7D1BBDB EQ PUSH2 0x1BD JUMPI PUSH1 0x0 DUP1 REVERT JUMPDEST DUP1 PUSH4 0x3441006 EQ PUSH2 0x8B JUMPI DUP1 PUSH4 0xA144391 EQ PUSH2 0xAD JUMPI DUP1 PUSH4 0x481C6A75 EQ PUSH2 0xF2 JUMPI DUP1 PUSH4 0x81D12C58 EQ PUSH2 0x12A JUMPI JUMPDEST PUSH1 0x0 DUP1 REVERT JUMPDEST CALLVALUE DUP1 ISZERO PUSH2 0x97 JUMPI PUSH1 0x0 DUP1 REVERT JUMPDEST POP PUSH2 0xAB PUSH2 0xA6 CALLDATASIZE PUSH1 0x4 PUSH2 0x534 JUMP JUMPDEST PUSH2 0x1DD JUMP JUMPDEST STOP JUMPDEST CALLVALUE DUP1 ISZERO PUSH2 0xB9 JUMPI PUSH1 0x0 DUP1 REVERT JUMPDEST POP PUSH2 0xDD PUSH2 0xC8 CALLDATASIZE PUSH1 0x4 PUSH2 0x565 JUMP JUMPDEST PUSH1 0x4 PUSH1 0x20 MSTORE PUSH1 0x0 SWAP1 DUP2 MSTORE PUSH1 0x40 SWAP1 KECCAK256 SLOAD PUSH1 0xFF AND DUP2 JUMP JUMPDEST PUSH1 0x40 MLOAD SWAP1 ISZERO ISZERO DUP2 MSTORE PUSH1 0x20 ADD JUMPDEST PUSH1 0x40 MLOAD DUP1 SWAP2 SUB SWAP1 RETURN JUMPDEST CALLVALUE DUP1 ISZERO PUSH2 0xFE JUMPI PUSH1 0x0 DUP1 REVERT JUMPDEST POP PUSH1 0x2 SLOAD PUSH2 0x112 SWAP1 PUSH1 0x1 PUSH1 0x1 PUSH1 0xA0 SHL SUB AND DUP2 JUMP JUMPDEST PUSH1 0x40 MLOAD PUSH1 0x1 PUSH1 0x1 PUSH1 0xA0 SHL SUB SWAP1 SWAP2 AND DUP2 MSTORE PUSH1 0x20 ADD PUSH2 0xE9 JUMP JUMPDEST CALLVALUE DUP1 ISZERO PUSH2 0x136 JUMPI PUSH1 0x0 DUP1 REVERT JUMPDEST POP PUSH2 0x14A PUSH2 0x145 CALLDATASIZE PUSH1 0x4 PUSH2 0x534 JUMP JUMPDEST PUSH2 0x291 JUMP JUMPDEST PUSH1 0x40 MLOAD PUSH2 0xE9 SWAP6 SWAP5 SWAP4 SWAP3 SWAP2 SWAP1 PUSH2 0x589 JUMP JUMPDEST CALLVALUE DUP1 ISZERO PUSH2 0x167 JUMPI PUSH1 0x0 DUP1 REVERT JUMPDEST POP PUSH2 0x171 PUSH1 0x5 SLOAD DUP2 JUMP JUMPDEST PUSH1 0x40 MLOAD SWAP1 DUP2 MSTORE PUSH1 0x20 ADD PUSH2 0xE9 JUMP JUMPDEST CALLVALUE DUP1 ISZERO PUSH2 0x18B JUMPI PUSH1 0x0 DUP1 REVERT JUMPDEST POP PUSH2 0xAB PUSH2 0x19A CALLDATASIZE PUSH1 0x4 PUSH2 0x62D JUMP JUMPDEST PUSH2 0x358 JUMP JUMPDEST CALLVALUE DUP1 ISZERO PUSH2 0x1AB JUMPI PUSH1 0x0 DUP1 REVERT JUMPDEST POP PUSH2 0x171 PUSH1 0x3 SLOAD DUP2 JUMP JUMPDEST PUSH2 0xAB PUSH2 0x3E1 JUMP JUMPDEST CALLVALUE DUP1 ISZERO PUSH2 0x1C9 JUMPI PUSH1 0x0 DUP1 REVERT JUMPDEST POP PUSH2 0xAB PUSH2 0x1D8 CALLDATASIZE PUSH1 0x4 PUSH2 0x534 JUMP JUMPDEST PUSH2 0x41E JUMP JUMPDEST PUSH1 0x2 SLOAD PUSH1 0x1 PUSH1 0x1 PUSH1 0xA0 SHL SUB AND CALLER EQ PUSH2 0x1F4 JUMPI PUSH1 0x0 DUP1 REVERT JUMPDEST PUSH1 0x0 DUP2 DUP2 MSTORE PUSH1 0x1 PUSH1 0x20 MSTORE PUSH1 0x40 SWAP1 KECCAK256 PUSH1 0x2 DUP2 ADD SLOAD PUSH1 0x1 PUSH1 0xA0 SHL SWAP1 DIV PUSH1 0xFF AND ISZERO PUSH2 0x21B JUMPI PUSH1 0x0 DUP1 REVERT JUMPDEST PUSH1 0x2 PUSH1 0x5 SLOAD PUSH2 0x22A SWAP2 SWAP1 PUSH2 0x6F8 JUMP JUMPDEST DUP2 PUSH1 0x3 ADD SLOAD GT PUSH2 0x239 JUMPI PUSH1 0x0 DUP1 REVERT JUMPDEST PUSH1 0x2 DUP2 ADD SLOAD PUSH1 0x1 DUP3 ADD SLOAD PUSH1 0x40 MLOAD PUSH1 0x1 PUSH1 0x1 PUSH1 0xA0 SHL SUB SWAP1 SWAP3 AND SWAP2 DUP2 ISZERO PUSH2 0x8FC MUL SWAP2 SWAP1 PUSH1 0x0 DUP2 DUP2 DUP2 DUP6 DUP9 DUP9 CALL SWAP4 POP POP POP POP ISZERO DUP1 ISZERO PUSH2 0x279 JUMPI RETURNDATASIZE PUSH1 0x0 DUP1 RETURNDATACOPY RETURNDATASIZE PUSH1 0x0 REVERT JUMPDEST POP PUSH1 0x2 ADD DUP1 SLOAD PUSH1 0xFF PUSH1 0xA0 SHL NOT AND PUSH1 0x1 PUSH1 0xA0 SHL OR SWAP1 SSTORE POP JUMP JUMPDEST PUSH1 0x1 PUSH1 0x20 MSTORE PUSH1 0x0 SWAP1 DUP2 MSTORE PUSH1 0x40 SWAP1 KECCAK256 DUP1 SLOAD DUP2 SWAP1 PUSH2 0x2AC SWAP1 PUSH2 0x71A JUMP JUMPDEST DUP1 PUSH1 0x1F ADD PUSH1 0x20 DUP1 SWAP2 DIV MUL PUSH1 0x20 ADD PUSH1 0x40 MLOAD SWAP1 DUP2 ADD PUSH1 0x40 MSTORE DUP1 SWAP3 SWAP2 SWAP1 DUP2 DUP2 MSTORE PUSH1 0x20 ADD DUP3 DUP1 SLOAD PUSH2 0x2D8 SWAP1 PUSH2 0x71A JUMP JUMPDEST DUP1 ISZERO PUSH2 0x325 JUMPI DUP1 PUSH1 0x1F LT PUSH2 0x2FA JUMPI PUSH2 0x100 DUP1 DUP4 SLOAD DIV MUL DUP4 MSTORE SWAP2 PUSH1 0x20 ADD SWAP2 PUSH2 0x325 JUMP JUMPDEST DUP3 ADD SWAP2 SWAP1 PUSH1 0x0 MSTORE PUSH1 0x20 PUSH1 0x0 KECCAK256 SWAP1 JUMPDEST DUP2 SLOAD DUP2 MSTORE SWAP1 PUSH1 0x1 ADD SWAP1 PUSH1 0x20 ADD DUP1 DUP4 GT PUSH2 0x308 JUMPI DUP3 SWAP1 SUB PUSH1 0x1F AND DUP3 ADD SWAP2 JUMPDEST POP POP POP POP PUSH1 0x1 DUP4 ADD SLOAD PUSH1 0x2 DUP5 ADD SLOAD PUSH1 0x3 SWAP1 SWAP5 ADD SLOAD SWAP3 SWAP4 SWAP1 SWAP3 PUSH1 0x1 PUSH1 0x1 PUSH1 0xA0 SHL SUB DUP3 AND SWAP3 POP PUSH1 0x1 PUSH1 0xA0 SHL SWAP1 SWAP2 DIV PUSH1 0xFF AND SWAP1 DUP6 JUMP JUMPDEST PUSH1 0x2 SLOAD PUSH1 0x1 PUSH1 0x1 PUSH1 0xA0 SHL SUB AND CALLER EQ PUSH2 0x36F JUMPI PUSH1 0x0 DUP1 REVERT JUMPDEST PUSH1 0x0 DUP1 SLOAD PUSH1 0x1 SWAP1 DUP3 SWAP1 DUP2 DUP1 PUSH2 0x383 DUP4 PUSH2 0x754 JUMP JUMPDEST SWAP1 SWAP2 SSTORE POP DUP2 MSTORE PUSH1 0x20 DUP1 DUP3 ADD SWAP3 SWAP1 SWAP3 MSTORE PUSH1 0x40 ADD PUSH1 0x0 KECCAK256 DUP6 MLOAD SWAP1 SWAP3 POP PUSH2 0x3AC SWAP2 DUP4 SWAP2 SWAP1 DUP8 ADD SWAP1 PUSH2 0x49B JUMP JUMPDEST POP PUSH1 0x1 DUP2 ADD SWAP3 SWAP1 SWAP3 SSTORE PUSH1 0x2 DUP3 ADD DUP1 SLOAD PUSH1 0x1 PUSH1 0x1 PUSH1 0xA8 SHL SUB NOT AND PUSH1 0x1 PUSH1 0x1 PUSH1 0xA0 SHL SUB SWAP1 SWAP3 AND SWAP2 SWAP1 SWAP2 OR SWAP1 SSTORE PUSH1 0x0 PUSH1 0x3 SWAP1 SWAP2 ADD SSTORE POP JUMP JUMPDEST PUSH1 0x3 SLOAD CALLVALUE GT PUSH2 0x3EF JUMPI PUSH1 0x0 DUP1 REVERT JUMPDEST CALLER PUSH1 0x0 SWAP1 DUP2 MSTORE PUSH1 0x4 PUSH1 0x20 MSTORE PUSH1 0x40 DUP2 KECCAK256 DUP1 SLOAD PUSH1 0xFF NOT AND PUSH1 0x1 OR SWAP1 SSTORE PUSH1 0x5 DUP1 SLOAD SWAP2 PUSH2 0x417 DUP4 PUSH2 0x754 JUMP JUMPDEST SWAP2 SWAP1 POP SSTORE POP JUMP JUMPDEST PUSH1 0x0 DUP2 DUP2 MSTORE PUSH1 0x1 PUSH1 0x20 SWAP1 DUP2 MSTORE PUSH1 0x40 DUP1 DUP4 KECCAK256 CALLER DUP5 MSTORE PUSH1 0x4 SWAP1 SWAP3 MSTORE SWAP1 SWAP2 KECCAK256 SLOAD PUSH1 0xFF AND PUSH2 0x447 JUMPI PUSH1 0x0 DUP1 REVERT JUMPDEST CALLER PUSH1 0x0 SWAP1 DUP2 MSTORE PUSH1 0x4 DUP3 ADD PUSH1 0x20 MSTORE PUSH1 0x40 SWAP1 KECCAK256 SLOAD PUSH1 0xFF AND ISZERO PUSH2 0x466 JUMPI PUSH1 0x0 DUP1 REVERT JUMPDEST CALLER PUSH1 0x0 SWAP1 DUP2 MSTORE PUSH1 0x4 DUP3 ADD PUSH1 0x20 MSTORE PUSH1 0x40 DUP2 KECCAK256 DUP1 SLOAD PUSH1 0xFF NOT AND PUSH1 0x1 OR SWAP1 SSTORE PUSH1 0x3 DUP3 ADD DUP1 SLOAD SWAP2 PUSH2 0x492 DUP4 PUSH2 0x754 JUMP JUMPDEST SWAP2 SWAP1 POP SSTORE POP POP POP JUMP JUMPDEST DUP3 DUP1 SLOAD PUSH2 0x4A7 SWAP1 PUSH2 0x71A JUMP JUMPDEST SWAP1 PUSH1 0x0 MSTORE PUSH1 0x20 PUSH1 0x0 KECCAK256 SWAP1 PUSH1 0x1F ADD PUSH1 0x20 SWAP1 DIV DUP2 ADD SWAP3 DUP3 PUSH2 0x4C9 JUMPI PUSH1 0x0 DUP6 SSTORE PUSH2 0x50F JUMP JUMPDEST DUP3 PUSH1 0x1F LT PUSH2 0x4E2 JUMPI DUP1 MLOAD PUSH1 0xFF NOT AND DUP4 DUP1 ADD OR DUP6 SSTORE PUSH2 0x50F JUMP JUMPDEST DUP3 DUP1 ADD PUSH1 0x1 ADD DUP6 SSTORE DUP3 ISZERO PUSH2 0x50F JUMPI SWAP2 DUP3 ADD JUMPDEST DUP3 DUP2 GT ISZERO PUSH2 0x50F JUMPI DUP3 MLOAD DUP3 SSTORE SWAP2 PUSH1 0x20 ADD SWAP2 SWAP1 PUSH1 0x1 ADD SWAP1 PUSH2 0x4F4 JUMP JUMPDEST POP PUSH2 0x51B SWAP3 SWAP2 POP PUSH2 0x51F JUMP JUMPDEST POP SWAP1 JUMP JUMPDEST JUMPDEST DUP1 DUP3 GT ISZERO PUSH2 0x51B JUMPI PUSH1 0x0 DUP2 SSTORE PUSH1 0x1 ADD PUSH2 0x520 JUMP JUMPDEST PUSH1 0x0 PUSH1 0x20 DUP3 DUP5 SUB SLT ISZERO PUSH2 0x546 JUMPI PUSH1 0x0 DUP1 REVERT JUMPDEST POP CALLDATALOAD SWAP2 SWAP1 POP JUMP JUMPDEST PUSH1 0x1 PUSH1 0x1 PUSH1 0xA0 SHL SUB DUP2 AND DUP2 EQ PUSH2 0x562 JUMPI PUSH1 0x0 DUP1 REVERT JUMPDEST POP JUMP JUMPDEST PUSH1 0x0 PUSH1 0x20 DUP3 DUP5 SUB SLT ISZERO PUSH2 0x577 JUMPI PUSH1 0x0 DUP1 REVERT JUMPDEST DUP2 CALLDATALOAD PUSH2 0x582 DUP2 PUSH2 0x54D JUMP JUMPDEST SWAP4 SWAP3 POP POP POP JUMP JUMPDEST PUSH1 0xA0 DUP2 MSTORE PUSH1 0x0 DUP7 MLOAD DUP1 PUSH1 0xA0 DUP5 ADD MSTORE PUSH1 0x0 JUMPDEST DUP2 DUP2 LT ISZERO PUSH2 0x5B7 JUMPI PUSH1 0x20 DUP2 DUP11 ADD DUP2 ADD MLOAD PUSH1 0xC0 DUP7 DUP5 ADD ADD MSTORE ADD PUSH2 0x59A JUMP JUMPDEST DUP2 DUP2 GT ISZERO PUSH2 0x5C9 JUMPI PUSH1 0x0 PUSH1 0xC0 DUP4 DUP7 ADD ADD MSTORE JUMPDEST POP PUSH1 0x20 DUP4 ADD DUP8 SWAP1 MSTORE PUSH1 0x1F ADD PUSH1 0x1F NOT AND DUP3 ADD PUSH1 0xC0 ADD SWAP1 POP PUSH2 0x5F4 PUSH1 0x40 DUP4 ADD DUP7 PUSH1 0x1 PUSH1 0x1 PUSH1 0xA0 SHL SUB AND SWAP1 MSTORE JUMP JUMPDEST SWAP3 ISZERO ISZERO PUSH1 0x60 DUP3 ADD MSTORE PUSH1 0x80 ADD MSTORE SWAP4 SWAP3 POP POP POP JUMP JUMPDEST PUSH4 0x4E487B71 PUSH1 0xE0 SHL PUSH1 0x0 MSTORE PUSH1 0x41 PUSH1 0x4 MSTORE PUSH1 0x24 PUSH1 0x0 REVERT JUMPDEST DUP1 CALLDATALOAD PUSH2 0x628 DUP2 PUSH2 0x54D JUMP JUMPDEST SWAP2 SWAP1 POP JUMP JUMPDEST PUSH1 0x0 DUP1 PUSH1 0x0 PUSH1 0x60 DUP5 DUP7 SUB SLT ISZERO PUSH2 0x642 JUMPI PUSH1 0x0 DUP1 REVERT JUMPDEST DUP4 CALLDATALOAD PUSH8 0xFFFFFFFFFFFFFFFF DUP1 DUP3 GT ISZERO PUSH2 0x65A JUMPI PUSH1 0x0 DUP1 REVERT JUMPDEST DUP2 DUP7 ADD SWAP2 POP DUP7 PUSH1 0x1F DUP4 ADD SLT PUSH2 0x66E JUMPI PUSH1 0x0 DUP1 REVERT JUMPDEST DUP2 CALLDATALOAD DUP2 DUP2 GT ISZERO PUSH2 0x680 JUMPI PUSH2 0x680 PUSH2 0x607 JUMP JUMPDEST PUSH1 0x40 MLOAD PUSH1 0x1F DUP3 ADD PUSH1 0x1F NOT SWAP1 DUP2 AND PUSH1 0x3F ADD AND DUP2 ADD SWAP1 DUP4 DUP3 GT DUP2 DUP4 LT OR ISZERO PUSH2 0x6A8 JUMPI PUSH2 0x6A8 PUSH2 0x607 JUMP JUMPDEST DUP2 PUSH1 0x40 MSTORE DUP3 DUP2 MSTORE DUP10 PUSH1 0x20 DUP5 DUP8 ADD ADD GT ISZERO PUSH2 0x6C1 JUMPI PUSH1 0x0 DUP1 REVERT JUMPDEST DUP3 PUSH1 0x20 DUP7 ADD PUSH1 0x20 DUP4 ADD CALLDATACOPY PUSH1 0x0 PUSH1 0x20 DUP5 DUP4 ADD ADD MSTORE DUP1 SWAP8 POP POP POP POP POP POP PUSH1 0x20 DUP5 ADD CALLDATALOAD SWAP2 POP PUSH2 0x6EF PUSH1 0x40 DUP6 ADD PUSH2 0x61D JUMP JUMPDEST SWAP1 POP SWAP3 POP SWAP3 POP SWAP3 JUMP JUMPDEST PUSH1 0x0 DUP3 PUSH2 0x715 JUMPI PUSH4 0x4E487B71 PUSH1 0xE0 SHL PUSH1 0x0 MSTORE PUSH1 0x12 PUSH1 0x4 MSTORE PUSH1 0x24 PUSH1 0x0 REVERT JUMPDEST POP DIV SWAP1 JUMP JUMPDEST PUSH1 0x1 DUP2 DUP2 SHR SWAP1 DUP3 AND DUP1 PUSH2 0x72E JUMPI PUSH1 0x7F DUP3 AND SWAP2 POP JUMPDEST PUSH1 0x20 DUP3 LT DUP2 SUB PUSH2 0x74E JUMPI PUSH4 0x4E487B71 PUSH1 0xE0 SHL PUSH1 0x0 MSTORE PUSH1 0x22 PUSH1 0x4 MSTORE PUSH1 0x24 PUSH1 0x0 REVERT JUMPDEST POP SWAP2 SWAP1 POP JUMP JUMPDEST PUSH1 0x0 PUSH1 0x1 DUP3 ADD PUSH2 0x774 JUMPI PUSH4 0x4E487B71 PUSH1 0xE0 SHL PUSH1 0x0 MSTORE PUSH1 0x11 PUSH1 0x4 MSTORE PUSH1 0x24 PUSH1 0x0 REVERT JUMPDEST POP PUSH1 0x1 ADD SWAP1 JUMP INVALID LOG2 PUSH5 0x6970667358 0x22 SLT KECCAK256 DUP3 0xE ADDRESS SWAP7 STOP PUSH32 0x4015A0ED1891C24B7BA59507FAB083C978329C37F385CAD6B24264736F6C6343 STOP ADDMOD 0xD STOP CALLER "},"gasEstimates":{"creation":{"codeDepositCost":"393800","executionCost":"infinite","totalCost":"infinite"},"external":{"approveRequest(uint256)":"53366","approvers(address)":"2537","approversCount()":"2295","contribute()":"50883","createRequest(string,uint256,address)":"infinite","finalizeRequest(uint256)":"infinite","manager()":"2382","minimumContribution()":"2339","requests(uint256)":"infinite"}},"methodIdentifiers":{"approveRequest(uint256)":"d7d1bbdb","approvers(address)":"0a144391","approversCount()":"82fde093","contribute()":"d7bb99ba","createRequest(string,uint256,address)":"8a9cfd55","finalizeRequest(uint256)":"03441006","manager()":"481c6a75","minimumContribution()":"937e09b1","requests(uint256)":"81d12c58"}},"storageLayout":{"storage":[{"astId":56,"contract":"Campaign.sol:Campaign","label":"numRequests","offset":0,"slot":"0","type":"t_uint256"},{"astId":61,"contract":"Campaign.sol:Campaign","label":"requests","offset":0,"slot":"1","type":"t_mapping(t_uint256,t_struct(Request)54_storage)"},{"astId":63,"contract":"Campaign.sol:Campaign","label":"manager","offset":0,"slot":"2","type":"t_address"},{"astId":65,"contract":"Campaign.sol:Campaign","label":"minimumContribution","offset":0,"slot":"3","type":"t_uint256"},{"astId":69,"contract":"Campaign.sol:Campaign","label":"approvers","offset":0,"slot":"4","type":"t_mapping(t_address,t_bool)"},{"astId":71,"contract":"Campaign.sol:Campaign","label":"approversCount","offset":0,"slot":"5","type":"t_uint256"}],"types":{"t_address":{"encoding":"inplace","label":"address","numberOfBytes":"20"},"t_address_payable":{"encoding":"inplace","label":"address payable","numberOfBytes":"20"},"t_bool":{"encoding":"inplace","label":"bool","numberOfBytes":"1"},"t_mapping(t_address,t_bool)":{"encoding":"mapping","key":"t_address","label":"mapping(address => bool)","numberOfBytes":"32","value":"t_bool"},"t_mapping(t_uint256,t_struct(Request)54_storage)":{"encoding":"mapping","key":"t_uint256","label":"mapping(uint256 => struct Campaign.Request)","numberOfBytes":"32","value":"t_struct(Request)54_storage"},"t_string_storage":{"encoding":"bytes","label":"string","numberOfBytes":"32"},"t_struct(Request)54_storage":{"encoding":"inplace","label":"struct Campaign.Request","members":[{"astId":41,"contract":"Campaign.sol:Campaign","label":"description","offset":0,"slot":"0","type":"t_string_storage"},{"astId":43,"contract":"Campaign.sol:Campaign","label":"value","offset":0,"slot":"1","type":"t_uint256"},{"astId":45,"contract":"Campaign.sol:Campaign","label":"recipient","offset":0,"slot":"2","type":"t_address_payable"},{"astId":47,"contract":"Campaign.sol:Campaign","label":"complete","offset":20,"slot":"2","type":"t_bool"},{"astId":49,"contract":"Campaign.sol:Campaign","label":"approvalCount","offset":0,"slot":"3","type":"t_uint256"},{"astId":53,"contract":"Campaign.sol:Campaign","label":"approvals","offset":0,"slot":"4","type":"t_mapping(t_address,t_bool)"}],"numberOfBytes":"160"},"t_uint256":{"encoding":"inplace","label":"uint256","numberOfBytes":"32"}}},"userdoc":{"kind":"user","methods":{},"version":1}}